{
  "_format": "hh-sol-artifact-1",
  "contractName": "FundLockGateway",
  "sourceName": "contracts/axelar/FundLockGateway.sol",
  "abi": [
    {
      "inputs": [],
      "stateMutability": "nonpayable",
      "type": "constructor"
    },
    {
      "inputs": [],
      "name": "GasServiceZeroAddress",
      "type": "error"
    },
    {
      "inputs": [],
      "name": "GatewayZeroAddress",
      "type": "error"
    },
    {
      "inputs": [
        {
          "internalType": "address",
          "name": "contractAddress",
          "type": "address"
        }
      ],
      "name": "NotContract",
      "type": "error"
    },
    {
      "anonymous": false,
      "inputs": [
        {
          "indexed": false,
          "internalType": "address",
          "name": "previousAdmin",
          "type": "address"
        },
        {
          "indexed": false,
          "internalType": "address",
          "name": "newAdmin",
          "type": "address"
        }
      ],
      "name": "AdminChanged",
      "type": "event"
    },
    {
      "anonymous": false,
      "inputs": [
        {
          "indexed": true,
          "internalType": "address",
          "name": "beacon",
          "type": "address"
        }
      ],
      "name": "BeaconUpgraded",
      "type": "event"
    },
    {
      "anonymous": false,
      "inputs": [
        {
          "indexed": false,
          "internalType": "uint8",
          "name": "version",
          "type": "uint8"
        }
      ],
      "name": "Initialized",
      "type": "event"
    },
    {
      "anonymous": false,
      "inputs": [
        {
          "indexed": true,
          "internalType": "address",
          "name": "implementation",
          "type": "address"
        }
      ],
      "name": "Upgraded",
      "type": "event"
    },
    {
      "inputs": [
        {
          "internalType": "string",
          "name": "symbol",
          "type": "string"
        },
        {
          "internalType": "uint256",
          "name": "value",
          "type": "uint256"
        }
      ],
      "name": "deposit",
      "outputs": [],
      "stateMutability": "payable",
      "type": "function"
    },
    {
      "inputs": [],
      "name": "gasReceiver",
      "outputs": [
        {
          "internalType": "contract IAxelarGasService",
          "name": "",
          "type": "address"
        }
      ],
      "stateMutability": "view",
      "type": "function"
    },
    {
      "inputs": [],
      "name": "gateway",
      "outputs": [
        {
          "internalType": "contract IAxelarGateway",
          "name": "",
          "type": "address"
        }
      ],
      "stateMutability": "view",
      "type": "function"
    },
    {
      "inputs": [
        {
          "internalType": "contract IAccessController",
          "name": "_accessController",
          "type": "address"
        },
        {
          "internalType": "contract IAxelarGateway",
          "name": "_gateway",
          "type": "address"
        },
        {
          "internalType": "contract IAxelarGasService",
          "name": "_gasService",
          "type": "address"
        },
        {
          "internalType": "string",
          "name": "_settlementChain",
          "type": "string"
        },
        {
          "internalType": "string",
          "name": "_settlementContract",
          "type": "string"
        }
      ],
      "name": "initialize",
      "outputs": [],
      "stateMutability": "nonpayable",
      "type": "function"
    },
    {
      "inputs": [],
      "name": "proxiableUUID",
      "outputs": [
        {
          "internalType": "bytes32",
          "name": "",
          "type": "bytes32"
        }
      ],
      "stateMutability": "view",
      "type": "function"
    },
    {
      "inputs": [
        {
          "internalType": "string",
          "name": "symbol",
          "type": "string"
        },
        {
          "internalType": "uint256",
          "name": "withdrawTimestamp",
          "type": "uint256"
        }
      ],
      "name": "release",
      "outputs": [],
      "stateMutability": "payable",
      "type": "function"
    },
    {
      "inputs": [],
      "name": "settlementChain",
      "outputs": [
        {
          "internalType": "string",
          "name": "",
          "type": "string"
        }
      ],
      "stateMutability": "view",
      "type": "function"
    },
    {
      "inputs": [],
      "name": "settlementContract",
      "outputs": [
        {
          "internalType": "string",
          "name": "",
          "type": "string"
        }
      ],
      "stateMutability": "view",
      "type": "function"
    },
    {
      "inputs": [
        {
          "internalType": "address",
          "name": "newImplementation",
          "type": "address"
        }
      ],
      "name": "upgradeTo",
      "outputs": [],
      "stateMutability": "nonpayable",
      "type": "function"
    },
    {
      "inputs": [
        {
          "internalType": "address",
          "name": "newImplementation",
          "type": "address"
        },
        {
          "internalType": "bytes",
          "name": "data",
          "type": "bytes"
        }
      ],
      "name": "upgradeToAndCall",
      "outputs": [],
      "stateMutability": "payable",
      "type": "function"
    },
    {
      "inputs": [
        {
          "internalType": "string",
          "name": "symbol",
          "type": "string"
        },
        {
          "internalType": "uint256",
          "name": "value",
          "type": "uint256"
        }
      ],
      "name": "withdraw",
      "outputs": [],
      "stateMutability": "payable",
      "type": "function"
    }
  ],
  "bytecode": "0x60a06040523060805234801561001457600080fd5b5061001d610022565b6100e2565b600054610100900460ff161561008e5760405162461bcd60e51b815260206004820152602760248201527f496e697469616c697a61626c653a20636f6e747261637420697320696e697469604482015266616c697a696e6760c81b606482015260840160405180910390fd5b60005460ff90811610156100e0576000805460ff191660ff9081179091556040519081527f7f26b83ff96e1f2b6a682f133852f6798a09c465da95921460cefb38474024989060200160405180910390a15b565b608051611b34610119600039600081816102b20152818161034d0152818161042b015281816104c1015261058f0152611b346000f3fe6080604052600436106100bc5760003560e01c806352d1902d116100745780638e27d7191161004e5780638e27d719146101cf578063b3cea5e7146101e2578063ea42418b146101f557600080fd5b806352d1902d1461016c57806380d14b4a1461018f57806383b43589146101af57600080fd5b806330b39a62116100a557806330b39a62146101245780633659cfe6146101395780634f1ef2861461015957600080fd5b8063095dfe1c146100c1578063116191b6146100ec575b600080fd5b3480156100cd57600080fd5b506100d661020a565b6040516100e391906113ac565b60405180910390f35b3480156100f857600080fd5b5060655461010c906001600160a01b031681565b6040516001600160a01b0390911681526020016100e3565b610137610132366004611464565b610298565b005b34801561014557600080fd5b506101376101543660046114d2565b6102a8565b6101376101673660046114ef565b610421565b34801561017857600080fd5b50610181610582565b6040519081526020016100e3565b34801561019b57600080fd5b5060665461010c906001600160a01b031681565b3480156101bb57600080fd5b506101376101ca36600461159c565b610647565b6101376101dd366004611644565b610775565b6101376101f0366004611464565b610a6a565b34801561020157600080fd5b506100d6610a76565b6067805461021790611690565b80601f016020809104026020016040519081016040528092919081815260200182805461024390611690565b80156102905780601f1061026557610100808354040283529160200191610290565b820191906000526020600020905b81548152906001019060200180831161027357829003601f168201915b505050505081565b6102a482826000610a83565b5050565b6001600160a01b037f000000000000000000000000000000000000000000000000000000000000000016300361034b5760405162461bcd60e51b815260206004820152602c60248201527f46756e6374696f6e206d7573742062652063616c6c6564207468726f7567682060448201527f64656c656761746563616c6c000000000000000000000000000000000000000060648201526084015b60405180910390fd5b7f00000000000000000000000000000000000000000000000000000000000000006001600160a01b031661037d610bba565b6001600160a01b0316146103f95760405162461bcd60e51b815260206004820152602c60248201527f46756e6374696f6e206d7573742062652063616c6c6564207468726f7567682060448201527f6163746976652070726f787900000000000000000000000000000000000000006064820152608401610342565b61040281610bed565b6040805160008082526020820190925261041e91839190610c74565b50565b6001600160a01b037f00000000000000000000000000000000000000000000000000000000000000001630036104bf5760405162461bcd60e51b815260206004820152602c60248201527f46756e6374696f6e206d7573742062652063616c6c6564207468726f7567682060448201527f64656c656761746563616c6c00000000000000000000000000000000000000006064820152608401610342565b7f00000000000000000000000000000000000000000000000000000000000000006001600160a01b03166104f1610bba565b6001600160a01b03161461056d5760405162461bcd60e51b815260206004820152602c60248201527f46756e6374696f6e206d7573742062652063616c6c6564207468726f7567682060448201527f6163746976652070726f787900000000000000000000000000000000000000006064820152608401610342565b61057682610bed565b6102a482826001610c74565b6000306001600160a01b037f000000000000000000000000000000000000000000000000000000000000000016146106225760405162461bcd60e51b815260206004820152603860248201527f555550535570677261646561626c653a206d757374206e6f742062652063616c60448201527f6c6564207468726f7567682064656c656761746563616c6c00000000000000006064820152608401610342565b507f360894a13ba1a3210667c828492db98dca3e2076cc3735a920a3ca505d382bbc90565b600054610100900460ff16158080156106675750600054600160ff909116105b806106815750303b158015610681575060005460ff166001145b6106f35760405162461bcd60e51b815260206004820152602e60248201527f496e697469616c697a61626c653a20636f6e747261637420697320616c72656160448201527f647920696e697469616c697a65640000000000000000000000000000000000006064820152608401610342565b6000805460ff191660011790558015610716576000805461ff0019166101001790555b61072588888888888888610e19565b801561076b576000805461ff0019169055604051600181527f7f26b83ff96e1f2b6a682f133852f6798a09c465da95921460cefb38474024989060200160405180910390a15b5050505050505050565b6065546040517f935b13f60000000000000000000000000000000000000000000000000000000081526000916001600160a01b03169063935b13f6906107c1908790879060040161170e565b602060405180830381865afa1580156107de573d6000803e3d6000fd5b505050506040513d601f19601f82011682018060405250810190610802919061172a565b6040517f23b872dd000000000000000000000000000000000000000000000000000000008152336004820152306024820152604481018490529091506001600160a01b038216906323b872dd906064016020604051808303816000875af1158015610871573d6000803e3d6000fd5b505050506040513d601f19601f820116820180604052508101906108959190611747565b506065546040517f095ea7b30000000000000000000000000000000000000000000000000000000081526001600160a01b039182166004820152602481018490529082169063095ea7b3906044016020604051808303816000875af1158015610902573d6000803e3d6000fd5b505050506040513d601f19601f820116820180604052508101906109269190611747565b5060408051336020820152600091016040516020818303038152906040529050346000146109dc576066546040517fc62c20020000000000000000000000000000000000000000000000000000000081526001600160a01b039091169063c62c20029034906109a990309060679060689088908d908d908d9033906004016117e6565b6000604051808303818588803b1580156109c257600080fd5b505af11580156109d6573d6000803e3d6000fd5b50505050505b6065546040517fb54170840000000000000000000000000000000000000000000000000000000081526001600160a01b039091169063b541708490610a319060679060689086908b908b908b90600401611862565b600060405180830381600087803b158015610a4b57600080fd5b505af1158015610a5f573d6000803e3d6000fd5b505050505050505050565b6102a482600083610a83565b6068805461021790611690565b600033848484604051602001610a9c94939291906118c4565b604051602081830303815290604052905034600014610b3d576066546040517f0c93e3bb0000000000000000000000000000000000000000000000000000000081526001600160a01b0390911690630c93e3bb903490610b0a903090606790606890889033906004016118f9565b6000604051808303818588803b158015610b2357600080fd5b505af1158015610b37573d6000803e3d6000fd5b50505050505b6065546040517f1c92115f0000000000000000000000000000000000000000000000000000000081526001600160a01b0390911690631c92115f90610b8c906067906068908690600401611958565b600060405180830381600087803b158015610ba657600080fd5b505af115801561076b573d6000803e3d6000fd5b60007f360894a13ba1a3210667c828492db98dca3e2076cc3735a920a3ca505d382bbc5b546001600160a01b0316919050565b6000610bf7610e39565b6040517f12d9a6ad000000000000000000000000000000000000000000000000000000008152600481018390523360248201526001600160a01b0391909116906312d9a6ad9060440160006040518083038186803b158015610c5857600080fd5b505afa158015610c6c573d6000803e3d6000fd5b505050505050565b7f4910fdfa16fed3260ed0e7147f7cc6da11a60208b5b9406d12a635614ffd91435460ff1615610cac57610ca783610e61565b505050565b826001600160a01b03166352d1902d6040518163ffffffff1660e01b8152600401602060405180830381865afa925050508015610d06575060408051601f3d908101601f19168201909252610d039181019061199b565b60015b610d785760405162461bcd60e51b815260206004820152602e60248201527f45524331393637557067726164653a206e657720696d706c656d656e7461746960448201527f6f6e206973206e6f7420555550530000000000000000000000000000000000006064820152608401610342565b7f360894a13ba1a3210667c828492db98dca3e2076cc3735a920a3ca505d382bbc8114610e0d5760405162461bcd60e51b815260206004820152602960248201527f45524331393637557067726164653a20756e737570706f727465642070726f7860448201527f6961626c655555494400000000000000000000000000000000000000000000006064820152608401610342565b50610ca7838383610f3a565b610e2287610f65565b610e30868686868686610feb565b50505050505050565b60007f3ff07d6b238084e39fc5d050e304626ccf5b5ccb8f457170664beef2c5e4919a610bde565b6001600160a01b0381163b610ede5760405162461bcd60e51b815260206004820152602d60248201527f455243313936373a206e657720696d706c656d656e746174696f6e206973206e60448201527f6f74206120636f6e7472616374000000000000000000000000000000000000006064820152608401610342565b807f360894a13ba1a3210667c828492db98dca3e2076cc3735a920a3ca505d382bbc5b80547fffffffffffffffffffffffff0000000000000000000000000000000000000000166001600160a01b039290921691909117905550565b610f43836110ce565b600082511180610f505750805b15610ca757610f5f838361110e565b50505050565b600054610100900460ff16610fe25760405162461bcd60e51b815260206004820152602b60248201527f496e697469616c697a61626c653a20636f6e7472616374206973206e6f74206960448201527f6e697469616c697a696e670000000000000000000000000000000000000000006064820152608401610342565b61041e81611219565b6001600160a01b03861661102b576040517fc2d6fa7600000000000000000000000000000000000000000000000000000000815260040160405180910390fd5b6001600160a01b03851661106b576040517f1bf50aac00000000000000000000000000000000000000000000000000000000815260040160405180910390fd5b606580546001600160a01b038089167fffffffffffffffffffffffff000000000000000000000000000000000000000092831617909255606680549288169290911691909117905560676110c08486836119fa565b506068610e308284836119fa565b6110d781610e61565b6040516001600160a01b038216907fbc7cd75a20ee27fd9adebab32041f755214dbc6bffa90cc0225b39da2e5c2d3b90600090a250565b60606001600160a01b0383163b61118d5760405162461bcd60e51b815260206004820152602660248201527f416464726573733a2064656c65676174652063616c6c20746f206e6f6e2d636f60448201527f6e747261637400000000000000000000000000000000000000000000000000006064820152608401610342565b600080846001600160a01b0316846040516111a89190611abb565b600060405180830381855af49150503d80600081146111e3576040519150601f19603f3d011682016040523d82523d6000602084013e6111e8565b606091505b50915091506112108282604051806060016040528060278152602001611ad86027913961129f565b95945050505050565b600054610100900460ff166112965760405162461bcd60e51b815260206004820152602b60248201527f496e697469616c697a61626c653a20636f6e7472616374206973206e6f74206960448201527f6e697469616c697a696e670000000000000000000000000000000000000000006064820152608401610342565b61041e816112bf565b606083156112ae5750816112b8565b6112b88383611332565b9392505050565b6001600160a01b0381163b61130b576040517fb5cf5b8f0000000000000000000000000000000000000000000000000000000081526001600160a01b0382166004820152602401610342565b807f3ff07d6b238084e39fc5d050e304626ccf5b5ccb8f457170664beef2c5e4919a610f01565b8151156113425781518083602001fd5b8060405162461bcd60e51b815260040161034291906113ac565b60005b8381101561137757818101518382015260200161135f565b50506000910152565b6000815180845261139881602086016020860161135c565b601f01601f19169290920160200192915050565b6020815260006112b86020830184611380565b7f4e487b7100000000000000000000000000000000000000000000000000000000600052604160045260246000fd5b600067ffffffffffffffff80841115611409576114096113bf565b604051601f8501601f19908116603f01168101908282118183101715611431576114316113bf565b8160405280935085815286868601111561144a57600080fd5b858560208301376000602087830101525050509392505050565b6000806040838503121561147757600080fd5b823567ffffffffffffffff81111561148e57600080fd5b8301601f8101851361149f57600080fd5b6114ae858235602084016113ee565b95602094909401359450505050565b6001600160a01b038116811461041e57600080fd5b6000602082840312156114e457600080fd5b81356112b8816114bd565b6000806040838503121561150257600080fd5b823561150d816114bd565b9150602083013567ffffffffffffffff81111561152957600080fd5b8301601f8101851361153a57600080fd5b611549858235602084016113ee565b9150509250929050565b60008083601f84011261156557600080fd5b50813567ffffffffffffffff81111561157d57600080fd5b60208301915083602082850101111561159557600080fd5b9250929050565b600080600080600080600060a0888a0312156115b757600080fd5b87356115c2816114bd565b965060208801356115d2816114bd565b955060408801356115e2816114bd565b9450606088013567ffffffffffffffff808211156115ff57600080fd5b61160b8b838c01611553565b909650945060808a013591508082111561162457600080fd5b506116318a828b01611553565b989b979a50959850939692959293505050565b60008060006040848603121561165957600080fd5b833567ffffffffffffffff81111561167057600080fd5b61167c86828701611553565b909790965060209590950135949350505050565b600181811c908216806116a457607f821691505b6020821081036116dd577f4e487b7100000000000000000000000000000000000000000000000000000000600052602260045260246000fd5b50919050565b818352818160208501375060006020828401015260006020601f19601f840116840101905092915050565b6020815260006117226020830184866116e3565b949350505050565b60006020828403121561173c57600080fd5b81516112b8816114bd565b60006020828403121561175957600080fd5b815180151581146112b857600080fd5b6000815461177681611690565b80855260206001838116801561179357600181146117ad576117db565b60ff198516838901528284151560051b89010195506117db565b866000528260002060005b858110156117d35781548a82018601529083019084016117b8565b890184019650505b505050505092915050565b60006001600160a01b03808b16835260e0602084015261180960e084018b611769565b838103604085015261181b818b611769565b9050838103606085015261182f818a611380565b9050838103608085015261184481888a6116e3565b60a0850196909652509290921660c090910152509695505050505050565b60a08152600061187560a0830189611769565b82810360208401526118878189611769565b9050828103604084015261189b8188611380565b905082810360608401526118b08186886116e3565b915050826080830152979650505050505050565b6001600160a01b03851681526080602082015260006118e66080830186611380565b6040830194909452506060015292915050565b60006001600160a01b03808816835260a0602084015261191c60a0840188611769565b838103604085015261192e8188611769565b905083810360608501526119428187611380565b9250508084166080840152509695505050505050565b60608152600061196b6060830186611769565b828103602084015261197d8186611769565b905082810360408401526119918185611380565b9695505050505050565b6000602082840312156119ad57600080fd5b5051919050565b601f821115610ca757600081815260208120601f850160051c810160208610156119db5750805b601f850160051c820191505b81811015610c6c578281556001016119e7565b67ffffffffffffffff831115611a1257611a126113bf565b611a2683611a208354611690565b836119b4565b6000601f841160018114611a5a5760008515611a425750838201355b600019600387901b1c1916600186901b178355611ab4565b600083815260209020601f19861690835b82811015611a8b5786850135825560209485019460019092019101611a6b565b5086821015611aa85760001960f88860031b161c19848701351681555b505060018560011b0183555b5050505050565b60008251611acd81846020870161135c565b919091019291505056fe416464726573733a206c6f772d6c6576656c2064656c65676174652063616c6c206661696c6564a2646970667358221220e3a373baef9e228b57507043d2557e64a1f2eabf9a2258378673d0c377982ad264736f6c63430008110033",
  "linkReferences": {},
  "deployedLinkReferences": {}
}