{
  "_format": "hh-sol-artifact-1",
  "contractName": "FundLock",
  "sourceName": "contracts/fundLock/FundLock.sol",
  "abi": [
    {
      "inputs": [],
      "stateMutability": "nonpayable",
      "type": "constructor"
    },
    {
      "inputs": [
        {
          "internalType": "uint256",
          "name": "value",
          "type": "uint256"
        }
      ],
      "name": "DepositERC20WithEther",
      "type": "error"
    },
    {
      "inputs": [],
      "name": "DepositZero",
      "type": "error"
    },
    {
      "inputs": [],
      "name": "DifferentLengths",
      "type": "error"
    },
    {
      "inputs": [
        {
          "internalType": "address",
          "name": "receiver",
          "type": "address"
        },
        {
          "internalType": "uint256",
          "name": "amount",
          "type": "uint256"
        }
      ],
      "name": "EthTransferFailed",
      "type": "error"
    },
    {
      "inputs": [
        {
          "internalType": "address",
          "name": "trader",
          "type": "address"
        },
        {
          "internalType": "address",
          "name": "assetAddress",
          "type": "address"
        },
        {
          "internalType": "uint256",
          "name": "toFundFromStructs",
          "type": "uint256"
        }
      ],
      "name": "FundFromWithdrawnFailed",
      "type": "error"
    },
    {
      "inputs": [],
      "name": "GatewayZeroAddress",
      "type": "error"
    },
    {
      "inputs": [
        {
          "internalType": "uint256",
          "name": "value",
          "type": "uint256"
        },
        {
          "internalType": "uint256",
          "name": "balance",
          "type": "uint256"
        }
      ],
      "name": "InsufficientFunds",
      "type": "error"
    },
    {
      "inputs": [
        {
          "internalType": "address",
          "name": "addr",
          "type": "address"
        }
      ],
      "name": "InvalidRegistryContractOrUtility",
      "type": "error"
    },
    {
      "inputs": [
        {
          "internalType": "address",
          "name": "withdrawer",
          "type": "address"
        },
        {
          "internalType": "address",
          "name": "token",
          "type": "address"
        }
      ],
      "name": "NoEmptySlot",
      "type": "error"
    },
    {
      "inputs": [
        {
          "internalType": "address",
          "name": "contractAddress",
          "type": "address"
        }
      ],
      "name": "NotContract",
      "type": "error"
    },
    {
      "inputs": [
        {
          "internalType": "address",
          "name": "sender",
          "type": "address"
        },
        {
          "internalType": "address",
          "name": "executable",
          "type": "address"
        }
      ],
      "name": "OnlyExecutable",
      "type": "error"
    },
    {
      "inputs": [],
      "name": "OnlyWETH9Accepted",
      "type": "error"
    },
    {
      "inputs": [
        {
          "internalType": "address",
          "name": "withdrawer",
          "type": "address"
        },
        {
          "internalType": "address",
          "name": "token",
          "type": "address"
        },
        {
          "internalType": "uint32",
          "name": "withdrawTimestamp",
          "type": "uint32"
        }
      ],
      "name": "ReleaseNeedWithdrawFirst",
      "type": "error"
    },
    {
      "inputs": [
        {
          "internalType": "address",
          "name": "withdrawer",
          "type": "address"
        },
        {
          "internalType": "address",
          "name": "token",
          "type": "address"
        },
        {
          "internalType": "uint32",
          "name": "withdrawTimestamp",
          "type": "uint32"
        },
        {
          "internalType": "uint256",
          "name": "current",
          "type": "uint256"
        }
      ],
      "name": "ReleaseRequeiredTimeNotReach",
      "type": "error"
    },
    {
      "inputs": [],
      "name": "ReleaseWithdrawTSZero",
      "type": "error"
    },
    {
      "inputs": [],
      "name": "ReleaseWithdrawTimestampZero",
      "type": "error"
    },
    {
      "inputs": [],
      "name": "TokenManagerZeroAddress",
      "type": "error"
    },
    {
      "inputs": [
        {
          "internalType": "address",
          "name": "token",
          "type": "address"
        }
      ],
      "name": "TooManyWithdrawRequest",
      "type": "error"
    },
    {
      "inputs": [],
      "name": "WithdrawZero",
      "type": "error"
    },
    {
      "anonymous": false,
      "inputs": [
        {
          "indexed": false,
          "internalType": "address",
          "name": "previousAdmin",
          "type": "address"
        },
        {
          "indexed": false,
          "internalType": "address",
          "name": "newAdmin",
          "type": "address"
        }
      ],
      "name": "AdminChanged",
      "type": "event"
    },
    {
      "anonymous": false,
      "inputs": [
        {
          "indexed": true,
          "internalType": "address",
          "name": "user",
          "type": "address"
        },
        {
          "indexed": false,
          "internalType": "int256",
          "name": "amount",
          "type": "int256"
        },
        {
          "indexed": true,
          "internalType": "address",
          "name": "token",
          "type": "address"
        },
        {
          "indexed": true,
          "internalType": "uint64",
          "name": "backendId",
          "type": "uint64"
        }
      ],
      "name": "BalanceUpdated",
      "type": "event"
    },
    {
      "anonymous": false,
      "inputs": [
        {
          "indexed": true,
          "internalType": "address",
          "name": "beacon",
          "type": "address"
        }
      ],
      "name": "BeaconUpgraded",
      "type": "event"
    },
    {
      "anonymous": false,
      "inputs": [
        {
          "indexed": true,
          "internalType": "address",
          "name": "depositor",
          "type": "address"
        },
        {
          "indexed": true,
          "internalType": "address",
          "name": "token",
          "type": "address"
        },
        {
          "indexed": false,
          "internalType": "uint256",
          "name": "amount",
          "type": "uint256"
        }
      ],
      "name": "FundLockDeposit",
      "type": "event"
    },
    {
      "anonymous": false,
      "inputs": [
        {
          "indexed": true,
          "internalType": "address",
          "name": "beneficiary",
          "type": "address"
        },
        {
          "indexed": true,
          "internalType": "address",
          "name": "token",
          "type": "address"
        },
        {
          "indexed": false,
          "internalType": "uint256",
          "name": "amount",
          "type": "uint256"
        },
        {
          "indexed": false,
          "internalType": "uint32",
          "name": "withdrawTimestamp",
          "type": "uint32"
        }
      ],
      "name": "FundsReleased",
      "type": "event"
    },
    {
      "anonymous": false,
      "inputs": [
        {
          "indexed": true,
          "internalType": "address",
          "name": "beneficiary",
          "type": "address"
        },
        {
          "indexed": true,
          "internalType": "address",
          "name": "token",
          "type": "address"
        },
        {
          "indexed": false,
          "internalType": "uint256",
          "name": "amount",
          "type": "uint256"
        },
        {
          "indexed": false,
          "internalType": "uint256",
          "name": "totalSlotsUsed",
          "type": "uint256"
        }
      ],
      "name": "FundsToBeWithdrawn",
      "type": "event"
    },
    {
      "anonymous": false,
      "inputs": [
        {
          "indexed": false,
          "internalType": "uint8",
          "name": "version",
          "type": "uint8"
        }
      ],
      "name": "Initialized",
      "type": "event"
    },
    {
      "anonymous": false,
      "inputs": [
        {
          "indexed": false,
          "internalType": "address",
          "name": "registry",
          "type": "address"
        }
      ],
      "name": "RegistryUpdated",
      "type": "event"
    },
    {
      "anonymous": false,
      "inputs": [
        {
          "indexed": false,
          "internalType": "uint32",
          "name": "interval",
          "type": "uint32"
        }
      ],
      "name": "ReleaseLockSet",
      "type": "event"
    },
    {
      "anonymous": false,
      "inputs": [
        {
          "indexed": false,
          "internalType": "uint32",
          "name": "interval",
          "type": "uint32"
        }
      ],
      "name": "TradeLockSet",
      "type": "event"
    },
    {
      "anonymous": false,
      "inputs": [
        {
          "indexed": true,
          "internalType": "address",
          "name": "implementation",
          "type": "address"
        }
      ],
      "name": "Upgraded",
      "type": "event"
    },
    {
      "inputs": [],
      "name": "ALLOWED_WITHDRAWAL_LIMIT",
      "outputs": [
        {
          "internalType": "uint256",
          "name": "",
          "type": "uint256"
        }
      ],
      "stateMutability": "view",
      "type": "function"
    },
    {
      "inputs": [
        {
          "internalType": "address",
          "name": "userAddress",
          "type": "address"
        },
        {
          "internalType": "address",
          "name": "tokenAddress",
          "type": "address"
        }
      ],
      "name": "balanceSheet",
      "outputs": [
        {
          "internalType": "uint256",
          "name": "",
          "type": "uint256"
        }
      ],
      "stateMutability": "view",
      "type": "function"
    },
    {
      "inputs": [
        {
          "internalType": "address",
          "name": "depositor",
          "type": "address"
        },
        {
          "internalType": "address",
          "name": "tokenAddress",
          "type": "address"
        },
        {
          "internalType": "uint256",
          "name": "value",
          "type": "uint256"
        }
      ],
      "name": "crossChainDeposit",
      "outputs": [],
      "stateMutability": "payable",
      "type": "function"
    },
    {
      "inputs": [
        {
          "internalType": "address",
          "name": "withdrawer",
          "type": "address"
        },
        {
          "internalType": "string",
          "name": "tokenSymbol",
          "type": "string"
        },
        {
          "internalType": "address",
          "name": "tokenAddress",
          "type": "address"
        },
        {
          "internalType": "uint32",
          "name": "withdrawTimestamp",
          "type": "uint32"
        },
        {
          "internalType": "string",
          "name": "destinationChain",
          "type": "string"
        }
      ],
      "name": "crossChainRelease",
      "outputs": [],
      "stateMutability": "nonpayable",
      "type": "function"
    },
    {
      "inputs": [
        {
          "internalType": "address",
          "name": "withdrawer",
          "type": "address"
        },
        {
          "internalType": "address",
          "name": "tokenAddress",
          "type": "address"
        },
        {
          "internalType": "uint256",
          "name": "value",
          "type": "uint256"
        }
      ],
      "name": "crossChainWithdraw",
      "outputs": [],
      "stateMutability": "nonpayable",
      "type": "function"
    },
    {
      "inputs": [
        {
          "internalType": "address",
          "name": "tokenAddress",
          "type": "address"
        },
        {
          "internalType": "uint256",
          "name": "value",
          "type": "uint256"
        }
      ],
      "name": "deposit",
      "outputs": [],
      "stateMutability": "payable",
      "type": "function"
    },
    {
      "inputs": [],
      "name": "executable",
      "outputs": [
        {
          "internalType": "contract IFundLockExecutable",
          "name": "",
          "type": "address"
        }
      ],
      "stateMutability": "view",
      "type": "function"
    },
    {
      "inputs": [
        {
          "internalType": "address",
          "name": "userAddress",
          "type": "address"
        },
        {
          "internalType": "address",
          "name": "tokenAddress",
          "type": "address"
        },
        {
          "internalType": "uint256",
          "name": "index",
          "type": "uint256"
        }
      ],
      "name": "fundsToWithdraw",
      "outputs": [
        {
          "internalType": "uint256",
          "name": "value",
          "type": "uint256"
        },
        {
          "internalType": "uint32",
          "name": "timestamp",
          "type": "uint32"
        }
      ],
      "stateMutability": "view",
      "type": "function"
    },
    {
      "inputs": [
        {
          "internalType": "address",
          "name": "",
          "type": "address"
        },
        {
          "internalType": "address",
          "name": "",
          "type": "address"
        }
      ],
      "name": "fundsToWithdrawSlots",
      "outputs": [
        {
          "internalType": "uint256",
          "name": "",
          "type": "uint256"
        }
      ],
      "stateMutability": "view",
      "type": "function"
    },
    {
      "inputs": [
        {
          "internalType": "address",
          "name": "beneficiary",
          "type": "address"
        },
        {
          "internalType": "address",
          "name": "token",
          "type": "address"
        }
      ],
      "name": "fundsToWithdrawTotal",
      "outputs": [
        {
          "internalType": "uint256",
          "name": "",
          "type": "uint256"
        }
      ],
      "stateMutability": "view",
      "type": "function"
    },
    {
      "inputs": [],
      "name": "gasReceiver",
      "outputs": [
        {
          "internalType": "contract IAxelarGasService",
          "name": "",
          "type": "address"
        }
      ],
      "stateMutability": "view",
      "type": "function"
    },
    {
      "inputs": [],
      "name": "gateway",
      "outputs": [
        {
          "internalType": "contract IAxelarGateway",
          "name": "",
          "type": "address"
        }
      ],
      "stateMutability": "view",
      "type": "function"
    },
    {
      "inputs": [
        {
          "internalType": "contract IAccessController",
          "name": "_accessController",
          "type": "address"
        },
        {
          "internalType": "contract ITokenManager",
          "name": "_tokenManager",
          "type": "address"
        },
        {
          "internalType": "contract IAxelarGateway",
          "name": "_gateway",
          "type": "address"
        },
        {
          "internalType": "uint32",
          "name": "_tradeLock",
          "type": "uint32"
        },
        {
          "internalType": "uint32",
          "name": "_releaseLock",
          "type": "uint32"
        }
      ],
      "name": "initialize",
      "outputs": [],
      "stateMutability": "nonpayable",
      "type": "function"
    },
    {
      "inputs": [],
      "name": "proxiableUUID",
      "outputs": [
        {
          "internalType": "bytes32",
          "name": "",
          "type": "bytes32"
        }
      ],
      "stateMutability": "view",
      "type": "function"
    },
    {
      "inputs": [],
      "name": "registry",
      "outputs": [
        {
          "internalType": "contract IRegistry",
          "name": "",
          "type": "address"
        }
      ],
      "stateMutability": "view",
      "type": "function"
    },
    {
      "inputs": [
        {
          "internalType": "address",
          "name": "tokenAddress",
          "type": "address"
        },
        {
          "internalType": "uint32",
          "name": "withdrawTimestamp",
          "type": "uint32"
        }
      ],
      "name": "release",
      "outputs": [],
      "stateMutability": "nonpayable",
      "type": "function"
    },
    {
      "inputs": [],
      "name": "releaseLock",
      "outputs": [
        {
          "internalType": "uint32",
          "name": "",
          "type": "uint32"
        }
      ],
      "stateMutability": "view",
      "type": "function"
    },
    {
      "inputs": [
        {
          "internalType": "contract IFundLockExecutable",
          "name": "_executable",
          "type": "address"
        }
      ],
      "name": "setExecutable",
      "outputs": [],
      "stateMutability": "nonpayable",
      "type": "function"
    },
    {
      "inputs": [
        {
          "internalType": "contract IAxelarGateway",
          "name": "_gateway",
          "type": "address"
        }
      ],
      "name": "setGateway",
      "outputs": [],
      "stateMutability": "nonpayable",
      "type": "function"
    },
    {
      "inputs": [
        {
          "internalType": "contract IRegistry",
          "name": "_registry",
          "type": "address"
        }
      ],
      "name": "setRegistry",
      "outputs": [],
      "stateMutability": "nonpayable",
      "type": "function"
    },
    {
      "inputs": [
        {
          "internalType": "uint32",
          "name": "interval",
          "type": "uint32"
        }
      ],
      "name": "setReleaseLockInterval",
      "outputs": [],
      "stateMutability": "nonpayable",
      "type": "function"
    },
    {
      "inputs": [
        {
          "internalType": "uint32",
          "name": "interval",
          "type": "uint32"
        }
      ],
      "name": "setTradeLockInterval",
      "outputs": [],
      "stateMutability": "nonpayable",
      "type": "function"
    },
    {
      "inputs": [],
      "name": "settlementChain",
      "outputs": [
        {
          "internalType": "string",
          "name": "",
          "type": "string"
        }
      ],
      "stateMutability": "view",
      "type": "function"
    },
    {
      "inputs": [],
      "name": "settlementContract",
      "outputs": [
        {
          "internalType": "string",
          "name": "",
          "type": "string"
        }
      ],
      "stateMutability": "view",
      "type": "function"
    },
    {
      "inputs": [],
      "name": "tokenManager",
      "outputs": [
        {
          "internalType": "contract ITokenManager",
          "name": "",
          "type": "address"
        }
      ],
      "stateMutability": "view",
      "type": "function"
    },
    {
      "inputs": [],
      "name": "tradeLock",
      "outputs": [
        {
          "internalType": "uint32",
          "name": "",
          "type": "uint32"
        }
      ],
      "stateMutability": "view",
      "type": "function"
    },
    {
      "inputs": [
        {
          "internalType": "address[]",
          "name": "traders",
          "type": "address[]"
        },
        {
          "internalType": "int256[]",
          "name": "amounts",
          "type": "int256[]"
        },
        {
          "internalType": "address[]",
          "name": "tokens",
          "type": "address[]"
        },
        {
          "internalType": "uint64",
          "name": "backendId",
          "type": "uint64"
        }
      ],
      "name": "updateBalances",
      "outputs": [],
      "stateMutability": "nonpayable",
      "type": "function"
    },
    {
      "inputs": [
        {
          "internalType": "address",
          "name": "newImplementation",
          "type": "address"
        }
      ],
      "name": "upgradeTo",
      "outputs": [],
      "stateMutability": "nonpayable",
      "type": "function"
    },
    {
      "inputs": [
        {
          "internalType": "address",
          "name": "newImplementation",
          "type": "address"
        },
        {
          "internalType": "bytes",
          "name": "data",
          "type": "bytes"
        }
      ],
      "name": "upgradeToAndCall",
      "outputs": [],
      "stateMutability": "payable",
      "type": "function"
    },
    {
      "inputs": [
        {
          "internalType": "address",
          "name": "tokenAddress",
          "type": "address"
        },
        {
          "internalType": "uint256",
          "name": "value",
          "type": "uint256"
        }
      ],
      "name": "withdraw",
      "outputs": [],
      "stateMutability": "nonpayable",
      "type": "function"
    },
    {
      "stateMutability": "payable",
      "type": "receive"
    }
  ],
  "bytecode": "0x60a06040523073ffffffffffffffffffffffffffffffffffffffff1660809073ffffffffffffffffffffffffffffffffffffffff168152503480156200004457600080fd5b5062000061675d71c8841b16e84660c01b620000af60201b60201c565b6200007d67fe3af6d97dc7381a60c01b620000af60201b60201c565b62000099670a88fce93266652860c01b620000af60201b60201c565b620000a9620000b260201b60201c565b6200025d565b50565b600060019054906101000a900460ff161562000105576040517f08c379a0000000000000000000000000000000000000000000000000000000008152600401620000fc9062000200565b60405180910390fd5b60ff801660008054906101000a900460ff1660ff161015620001775760ff6000806101000a81548160ff021916908360ff1602179055507f7f26b83ff96e1f2b6a682f133852f6798a09c465da95921460cefb384740249860ff6040516200016e919062000240565b60405180910390a15b565b600082825260208201905092915050565b7f496e697469616c697a61626c653a20636f6e747261637420697320696e69746960008201527f616c697a696e6700000000000000000000000000000000000000000000000000602082015250565b6000620001e860278362000179565b9150620001f5826200018a565b604082019050919050565b600060208201905081810360008301526200021b81620001d9565b9050919050565b600060ff82169050919050565b6200023a8162000222565b82525050565b60006020820190506200025760008301846200022f565b92915050565b608051619183620002bf60003960008181610e8601528181610f14015281816113ec0152818161147a015281816116a50152818161173301528181611a7c015281816126b9015281816127470152818161394401526139d201526191836000f3fe6080604052600436106101d15760003560e01c80637c8b32ca116100f7578063abfd9e6911610095578063cba5b4ad11610064578063cba5b4ad14610788578063ea42418b146107b1578063eda54ad2146107dc578063f3fef3a3146108075761031d565b8063abfd9e69146106ef578063bea1600a14610718578063c71f2f9614610743578063ca7d9af81461075f5761031d565b806396d23780116100d157806396d2378014610637578063a35391b814610660578063a91ee0dc14610689578063abbd61ac146106b25761031d565b80637c8b32ca146105b857806380d14b4a146105e357806390646b4a1461060e5761031d565b80633659cfe61161016f5780634f1ef2861161013e5780634f1ef2861461050957806350bf07891461052557806352d1902d146105625780637b1039991461058d5761031d565b80633659cfe61461047257806337d04a931461049b57806347e7ef24146104c45780634bf8c287146104e05761031d565b806316131a18116101ab57806316131a18146103b55780631bfd76a1146103e05780632a3fa16f1461041e5780632a709b14146104475761031d565b8063095dfe1c14610322578063098597fa1461034d578063116191b61461038a5761031d565b3661031d576101ea675760dc9a8f92880b60c01b610830565b606760009054906101000a900473ffffffffffffffffffffffffffffffffffffffff1673ffffffffffffffffffffffffffffffffffffffff166370671eb16040518163ffffffff1660e01b8152600401602060405180830381865afa158015610257573d6000803e3d6000fd5b505050506040513d601f19601f8201168201806040525081019061027b9190617699565b73ffffffffffffffffffffffffffffffffffffffff163373ffffffffffffffffffffffffffffffffffffffff1614610307576102c16701e4aa9609afae0a60c01b610830565b6102d567ca433ad2e57ad7ce60c01b610830565b6040517fd30b05ab00000000000000000000000000000000000000000000000000000000815260040160405180910390fd5b61031b67c960fefe26c6a2be60c01b610830565b005b600080fd5b34801561032e57600080fd5b50610337610833565b6040516103449190617756565b60405180910390f35b34801561035957600080fd5b50610374600480360381019061036f919061778d565b6108c1565b60405161038191906177e6565b60405180910390f35b34801561039657600080fd5b5061039f610b56565b6040516103ac9190617860565b60405180910390f35b3480156103c157600080fd5b506103ca610b7c565b6040516103d7919061789c565b60405180910390f35b3480156103ec57600080fd5b50610407600480360381019061040291906178e3565b610ba2565b604051610415929190617955565b60405180910390f35b34801561042a57600080fd5b50610445600480360381019061044091906179aa565b610d27565b005b34801561045357600080fd5b5061045c610e5e565b60405161046991906179f8565b60405180910390f35b34801561047e57600080fd5b5061049960048036038101906104949190617a13565b610e84565b005b3480156104a757600080fd5b506104c260048036038101906104bd9190617b75565b61100c565b005b6104de60048036038101906104d99190617c28565b6113d6565b005b3480156104ec57600080fd5b50610507600480360381019061050291906179aa565b61156c565b005b610523600480360381019061051e9190617d09565b6116a3565b005b34801561053157600080fd5b5061054c6004803603810190610547919061778d565b6117df565b60405161055991906177e6565b60405180910390f35b34801561056e57600080fd5b50610577611a78565b6040516105849190617d7e565b60405180910390f35b34801561059957600080fd5b506105a2611b31565b6040516105af9190617dba565b60405180910390f35b3480156105c457600080fd5b506105cd611b57565b6040516105da9190617dd5565b60405180910390f35b3480156105ef57600080fd5b506105f8611b6d565b6040516106059190617e11565b60405180910390f35b34801561061a57600080fd5b5061063560048036038101906106309190617e6a565b611b93565b005b34801561064357600080fd5b5061065e60048036038101906106599190617ed5565b611cee565b005b34801561066c57600080fd5b5061068760048036038101906106829190617ff8565b611e49565b005b34801561069557600080fd5b506106b060048036038101906106ab91906180ff565b612523565b005b3480156106be57600080fd5b506106d960048036038101906106d4919061778d565b61267e565b6040516106e691906177e6565b60405180910390f35b3480156106fb57600080fd5b506107166004803603810190610711919061812c565b6126a3565b005b34801561072457600080fd5b5061072d61336d565b60405161073a91906177e6565b60405180910390f35b61075d600480360381019061075891906178e3565b613372565b005b34801561076b57600080fd5b50610786600480360381019061078191906181e8565b613528565b005b34801561079457600080fd5b506107af60048036038101906107aa91906178e3565b6136d4565b005b3480156107bd57600080fd5b506107c661388a565b6040516107d39190617756565b60405180910390f35b3480156107e857600080fd5b506107f1613918565b6040516107fe9190617dd5565b60405180910390f35b34801561081357600080fd5b5061082e60048036038101906108299190617c28565b61392e565b005b50565b606d805461084090618292565b80601f016020809104026020016040519081016040528092919081815260200182805461086c90618292565b80156108b95780601f1061088e576101008083540402835291602001916108b9565b820191906000526020600020905b81548152906001019060200180831161089c57829003601f168201915b505050505081565b60006108d76751036d50eab013a460c01b610830565b6108eb67556508534313c9b460c01b610830565b6108ff67797a914fbe521ec660c01b610830565b60006109156794939ef7418b5c3060c01b610830565b61092967dd075eca95aab20060c01b610830565b60005b6005811015610b2357610949670cd0de956e75835860c01b610830565b61095d672ba5d7f2b3112bcf60c01b610830565b42606c60049054906101000a900463ffffffff16606660008873ffffffffffffffffffffffffffffffffffffffff1673ffffffffffffffffffffffffffffffffffffffff16815260200190815260200160002060008773ffffffffffffffffffffffffffffffffffffffff1673ffffffffffffffffffffffffffffffffffffffff16815260200190815260200160002083600581106109ff576109fe6182c3565b5b6002020160010160009054906101000a900463ffffffff16610a219190618321565b63ffffffff161115610afd57610a416704a8fc760dc6bcd760c01b610830565b610a55676ec1f533f4e71cfa60c01b610830565b606660008673ffffffffffffffffffffffffffffffffffffffff1673ffffffffffffffffffffffffffffffffffffffff16815260200190815260200160002060008573ffffffffffffffffffffffffffffffffffffffff1673ffffffffffffffffffffffffffffffffffffffff1681526020019081526020016000208160058110610ae357610ae26182c3565b5b600202016000015482610af69190618359565b9150610b12565b610b116713b8bf8e08c8b46960c01b610830565b5b80610b1c9061838d565b905061092c565b50610b3867d1c37047ee41cf7d60c01b610830565b610b4c671837e5a0f055b4fb60c01b610830565b8091505092915050565b606a60009054906101000a900473ffffffffffffffffffffffffffffffffffffffff1681565b606960009054906101000a900473ffffffffffffffffffffffffffffffffffffffff1681565b600080610bb9672e6dcb9b53da5ab360c01b610830565b610bcd679f06fb2e15c205c360c01b610830565b610be167b8a884c023ad2cf560c01b610830565b6000610bec85613ac4565b915050610c03675352cac549145a7e60c01b610830565b610c1767c25ab0ccb6983e3260c01b610830565b6000606660008873ffffffffffffffffffffffffffffffffffffffff1673ffffffffffffffffffffffffffffffffffffffff16815260200190815260200160002060008373ffffffffffffffffffffffffffffffffffffffff1673ffffffffffffffffffffffffffffffffffffffff1681526020019081526020016000208560058110610ca757610ca66182c3565b5b60020201604051806040016040529081600082015481526020016001820160009054906101000a900463ffffffff1663ffffffff1663ffffffff16815250509050610cfc6747ebd05592c9f84960c01b610830565b80600001519350610d1666d249bf4f21c6e960c01b610830565b806020015192505050935093915050565b610d3b6754c556ec9a83862460c01b610830565b6000801b610d5367b800a060f3dcd44360c01b613be9565b610d6767011166f4f02cfe9560c01b613be9565b610d7b67e13f3f16311a0b8a60c01b613be9565b610d83613bec565b73ffffffffffffffffffffffffffffffffffffffff166312d9a6ad82336040518363ffffffff1660e01b8152600401610dbd9291906183e4565b60006040518083038186803b158015610dd557600080fd5b505afa158015610de9573d6000803e3d6000fd5b50505050610e01677d0517721a0a81ed60c01b613be9565b610e1567c9675c2036c9b86860c01b610830565b610e296769d3cf069474bfde60c01b610830565b610e3d671da6fe18ea606b8d60c01b610830565b610e51670163ccc515a361c860c01b610830565b610e5a82613c7f565b5050565b606760009054906101000a900473ffffffffffffffffffffffffffffffffffffffff1681565b7f000000000000000000000000000000000000000000000000000000000000000073ffffffffffffffffffffffffffffffffffffffff163073ffffffffffffffffffffffffffffffffffffffff1603610f12576040517f08c379a0000000000000000000000000000000000000000000000000000000008152600401610f099061847f565b60405180910390fd5b7f000000000000000000000000000000000000000000000000000000000000000073ffffffffffffffffffffffffffffffffffffffff16610f51613d2a565b73ffffffffffffffffffffffffffffffffffffffff1614610fa7576040517f08c379a0000000000000000000000000000000000000000000000000000000008152600401610f9e90618511565b60405180910390fd5b610fb081613d81565b61100981600067ffffffffffffffff811115610fcf57610fce617a4a565b5b6040519080825280601f01601f1916602001820160405280156110015781602001600182028036833780820191505090505b506000613e87565b50565b611020676bdf6c9a5bc2d2c060c01b610830565b61103467dcc5bf6753d52da760c01b610830565b611048672bff8147e9f34e9a60c01b610830565b61105c67d833a6fa45bb4a7460c01b610830565b606960009054906101000a900473ffffffffffffffffffffffffffffffffffffffff1673ffffffffffffffffffffffffffffffffffffffff163373ffffffffffffffffffffffffffffffffffffffff161461113a576110c567577626291c88a2a360c01b610830565b6110d96790c240a8e945296060c01b610830565b33606960009054906101000a900473ffffffffffffffffffffffffffffffffffffffff166040517fb1fba991000000000000000000000000000000000000000000000000000000008152600401611131929190618531565b60405180910390fd5b61114e67fa22683d2b08a21e60c01b610830565b61116267fae89ce2a020f75d60c01b610830565b61117667243d23ba628fdeec60c01b610830565b61118a678e82d10e2d29749e60c01b610830565b61119e679fd70f278b46df4960c01b610830565b6111b267320cbadfa0cc059360c01b610830565b60006111bf868585613ff5565b90506111d56701b3a6d6c04357d360c01b610830565b6111e9671fa83472ce4108b260c01b610830565b600061120c8773ffffffffffffffffffffffffffffffffffffffff166014614680565b905061122267ca8558eeb690216a60c01b610830565b61123667b7c145ebcb9caea660c01b610830565b611283606a60009054906101000a900473ffffffffffffffffffffffffffffffffffffffff16838773ffffffffffffffffffffffffffffffffffffffff166148bc9092919063ffffffff16565b6112976795be9ca8b988a1e160c01b610830565b6112ab67e49f3a31d699155360c01b610830565b606a60009054906101000a900473ffffffffffffffffffffffffffffffffffffffff1673ffffffffffffffffffffffffffffffffffffffff166326ef699d848389866040518563ffffffff1660e01b815260040161130c949392919061855a565b600060405180830381600087803b15801561132657600080fd5b505af115801561133a573d6000803e3d6000fd5b5050505061135267e76c6356109bb0f460c01b610830565b611366672c2dd52c857f622e60c01b610830565b8473ffffffffffffffffffffffffffffffffffffffff168773ffffffffffffffffffffffffffffffffffffffff167f5c5afdaa415721006e81fa898ab18a641c5f66105afb80e65fe9b6e1e901745784876040516113c5929190617955565b60405180910390a350505050505050565b6113ea6723871ac1cb6a9f0860c01b610830565b7f000000000000000000000000000000000000000000000000000000000000000073ffffffffffffffffffffffffffffffffffffffff163073ffffffffffffffffffffffffffffffffffffffff1603611478576040517f08c379a000000000000000000000000000000000000000000000000000000000815260040161146f9061847f565b60405180910390fd5b7f000000000000000000000000000000000000000000000000000000000000000073ffffffffffffffffffffffffffffffffffffffff166114b7613d2a565b73ffffffffffffffffffffffffffffffffffffffff161461150d576040517f08c379a000000000000000000000000000000000000000000000000000000000815260040161150490618511565b60405180910390fd5b611521676105506f4f4e0de860c01b610830565b61153567efd588261c87c7c660c01b610830565b61154967d73edd68d9e5596660c01b610830565b61155d67271348e34be6984a60c01b610830565b611568338383614a0b565b5050565b61158067201718276792606160c01b610830565b6000801b61159867b800a060f3dcd44360c01b613be9565b6115ac67011166f4f02cfe9560c01b613be9565b6115c067e13f3f16311a0b8a60c01b613be9565b6115c8613bec565b73ffffffffffffffffffffffffffffffffffffffff166312d9a6ad82336040518363ffffffff1660e01b81526004016116029291906183e4565b60006040518083038186803b15801561161a57600080fd5b505afa15801561162e573d6000803e3d6000fd5b50505050611646677d0517721a0a81ed60c01b613be9565b61165a672529bded005ab7fc60c01b610830565b61166e679f08eb287a957d7160c01b610830565b61168267f4b7f877343e7e2b60c01b610830565b61169667a843b2c5b005be9760c01b610830565b61169f82615226565b5050565b7f000000000000000000000000000000000000000000000000000000000000000073ffffffffffffffffffffffffffffffffffffffff163073ffffffffffffffffffffffffffffffffffffffff1603611731576040517f08c379a00000000000000000000000000000000000000000000000000000000081526004016117289061847f565b60405180910390fd5b7f000000000000000000000000000000000000000000000000000000000000000073ffffffffffffffffffffffffffffffffffffffff16611770613d2a565b73ffffffffffffffffffffffffffffffffffffffff16146117c6576040517f08c379a00000000000000000000000000000000000000000000000000000000081526004016117bd90618511565b60405180910390fd5b6117cf82613d81565b6117db82826001613e87565b5050565b60006117f567cbf25167a9b98d9a60c01b610830565b61180967cc9190183d6c1e7c60c01b610830565b61181d673e91f9e3f53a99ad60c01b610830565b6000606760009054906101000a900473ffffffffffffffffffffffffffffffffffffffff1673ffffffffffffffffffffffffffffffffffffffff166398dbe72c6040518163ffffffff1660e01b8152600401602060405180830381865afa15801561188c573d6000803e3d6000fd5b505050506040513d601f19601f820116820180604052508101906118b09190617699565b73ffffffffffffffffffffffffffffffffffffffff168373ffffffffffffffffffffffffffffffffffffffff161490506118f467b39bf71b01fb66e660c01b610830565b80801561191157506119106749803d9cb7e7909c60c01b6152d1565b5b8061192c575061192b67f22f335a9015aef460c01b6152dc565b5b61193657826119c8565b606760009054906101000a900473ffffffffffffffffffffffffffffffffffffffff1673ffffffffffffffffffffffffffffffffffffffff166370671eb16040518163ffffffff1660e01b8152600401602060405180830381865afa1580156119a3573d6000803e3d6000fd5b505050506040513d601f19601f820116820180604052508101906119c79190617699565b5b92506119de675c3374d97c1ad7a260c01b610830565b6119f267d7d7026b06915c8c60c01b610830565b606b60008573ffffffffffffffffffffffffffffffffffffffff1673ffffffffffffffffffffffffffffffffffffffff16815260200190815260200160002060008473ffffffffffffffffffffffffffffffffffffffff1673ffffffffffffffffffffffffffffffffffffffff1681526020019081526020016000205491505092915050565b60007f000000000000000000000000000000000000000000000000000000000000000073ffffffffffffffffffffffffffffffffffffffff163073ffffffffffffffffffffffffffffffffffffffff1614611b08576040517f08c379a0000000000000000000000000000000000000000000000000000000008152600401611aff90618626565b60405180910390fd5b7f360894a13ba1a3210667c828492db98dca3e2076cc3735a920a3ca505d382bbc60001b905090565b606860009054906101000a900473ffffffffffffffffffffffffffffffffffffffff1681565b606c60049054906101000a900463ffffffff1681565b606c60089054906101000a900473ffffffffffffffffffffffffffffffffffffffff1681565b611ba7677812ab3443d362d960c01b610830565b6000801b611bbf67b800a060f3dcd44360c01b613be9565b611bd367011166f4f02cfe9560c01b613be9565b611be767e13f3f16311a0b8a60c01b613be9565b611bef613bec565b73ffffffffffffffffffffffffffffffffffffffff166312d9a6ad82336040518363ffffffff1660e01b8152600401611c299291906183e4565b60006040518083038186803b158015611c4157600080fd5b505afa158015611c55573d6000803e3d6000fd5b50505050611c6d677d0517721a0a81ed60c01b613be9565b611c816791f7268e8d39431160c01b610830565b611c95679fe42260f8fc973d60c01b610830565b611ca96743eb222283691dff60c01b610830565b81606a60006101000a81548173ffffffffffffffffffffffffffffffffffffffff021916908373ffffffffffffffffffffffffffffffffffffffff1602179055505050565b611d026713ef5d058d3afb3f60c01b610830565b6000801b611d1a67b800a060f3dcd44360c01b613be9565b611d2e67011166f4f02cfe9560c01b613be9565b611d4267e13f3f16311a0b8a60c01b613be9565b611d4a613bec565b73ffffffffffffffffffffffffffffffffffffffff166312d9a6ad82336040518363ffffffff1660e01b8152600401611d849291906183e4565b60006040518083038186803b158015611d9c57600080fd5b505afa158015611db0573d6000803e3d6000fd5b50505050611dc8677d0517721a0a81ed60c01b613be9565b611ddc6776bf39885a188df160c01b610830565b611df067a592548f622a97a760c01b610830565b611e04673b454b6137d542e260c01b610830565b81606960006101000a81548173ffffffffffffffffffffffffffffffffffffffff021916908373ffffffffffffffffffffffffffffffffffffffff1602179055505050565b611e5d6735386eb05e28ebac60c01b610830565b611e7167c5e8dea99876485c60c01b610830565b611e85679da72057ffde31bc60c01b610830565b611e9967967eb8d34f971e0060c01b610830565b606860009054906101000a900473ffffffffffffffffffffffffffffffffffffffff1673ffffffffffffffffffffffffffffffffffffffff16631a8851c4336040518263ffffffff1660e01b8152600401611ef49190618646565b602060405180830381865afa158015611f11573d6000803e3d6000fd5b505050506040513d601f19601f82011682018060405250810190611f359190618699565b611f9e57611f4d6710eaf7889efc1c6960c01b610830565b611f61676565b8b8b59eb29760c01b610830565b336040517f716561c8000000000000000000000000000000000000000000000000000000008152600401611f959190618646565b60405180910390fd5b611fb26739d8ec8a228639c660c01b610830565b611fc66777c3444dd5c083b560c01b610830565b611fda670fcb221a7b3191e560c01b610830565b611fee6793dc4a2d4f37023a60c01b610830565b6120026779dc444a3373a16960c01b610830565b61201667238c01d85468f27f60c01b610830565b82829050878790501415801561203c575061203b671be590bcf43a6f9c60c01b6152d1565b5b806120695750848490508787905014158015612068575061206767eb738c5b934bf1bd60c01b6152d1565b5b5b156120c8576120826717f0c13a9ca78f7360c01b610830565b612096675d4739b9091e597860c01b610830565b6040517fe3657eb900000000000000000000000000000000000000000000000000000000815260040160405180910390fd5b6120dc6798b325febedcd58f60c01b610830565b6120f067851ed03aeb43b0c160c01b610830565b6121046759bfb1375104ace460c01b610830565b600061211a67f2fdeeb421ba16c860c01b610830565b61212e67cd8606a0a5e210df60c01b610830565b6000606760009054906101000a900473ffffffffffffffffffffffffffffffffffffffff1673ffffffffffffffffffffffffffffffffffffffff166398dbe72c6040518163ffffffff1660e01b8152600401602060405180830381865afa15801561219d573d6000803e3d6000fd5b505050506040513d601f19601f820116820180604052508101906121c19190617699565b90506121d7676b437fdd8b515a2160c01b610830565b6121eb6731f23cd25e59bd3e60c01b610830565b6000606760009054906101000a900473ffffffffffffffffffffffffffffffffffffffff1673ffffffffffffffffffffffffffffffffffffffff166370671eb16040518163ffffffff1660e01b8152600401602060405180830381865afa15801561225a573d6000803e3d6000fd5b505050506040513d601f19601f8201168201806040525081019061227e9190617699565b905061229467dfcb2467538470b960c01b610830565b6122a8672d07f224e61eeb0a60c01b610830565b60008a8a905090506122c46785284ab5d954e6b260c01b610830565b6122d86744f5fc8df6c379d960c01b610830565b60005b81811015612515576122f767af9a3a1b968a1f0560c01b610830565b8373ffffffffffffffffffffffffffffffffffffffff16888883818110612321576123206182c3565b5b90506020020160208101906123369190617a13565b73ffffffffffffffffffffffffffffffffffffffff16148015612369575061236867f5157794f39bc8c560c01b6152d1565b5b8061238457506123836777a3402722b175c760c01b6152dc565b5b6123b55787878281811061239b5761239a6182c3565b5b90506020020160208101906123b09190617a13565b6123b7565b825b94506123cd6763b70747c2736dd260c01b610830565b6123e167ce172176defa45c560c01b610830565b61242c8c8c838181106123f7576123f66182c3565b5b905060200201602081019061240c9190617a13565b868c8c858181106124205761241f6182c3565b5b905060200201356152e3565b61244067aba13df5433ded8560c01b610830565b61245467a7ab8d6a7433782460c01b610830565b8567ffffffffffffffff168573ffffffffffffffffffffffffffffffffffffffff168d8d84818110612489576124886182c3565b5b905060200201602081019061249e9190617a13565b73ffffffffffffffffffffffffffffffffffffffff167f341c69c7b3972f50bda12de7ebbcc3b38714ac55f725101e686b4bbccc984c2c8d8d868181106124e8576124e76182c3565b5b905060200201356040516124fc91906186df565b60405180910390a48061250e9061838d565b90506122db565b505050505050505050505050565b61253767615612a948d0c9a260c01b610830565b6000801b61254f67b800a060f3dcd44360c01b613be9565b61256367011166f4f02cfe9560c01b613be9565b61257767e13f3f16311a0b8a60c01b613be9565b61257f613bec565b73ffffffffffffffffffffffffffffffffffffffff166312d9a6ad82336040518363ffffffff1660e01b81526004016125b99291906183e4565b60006040518083038186803b1580156125d157600080fd5b505afa1580156125e5573d6000803e3d6000fd5b505050506125fd677d0517721a0a81ed60c01b613be9565b61261167b285e1a66410c17c60c01b610830565b61262567bf41c33b572cc66460c01b610830565b61263967a76568809421f10160c01b610830565b81606860006101000a81548173ffffffffffffffffffffffffffffffffffffffff021916908373ffffffffffffffffffffffffffffffffffffffff1602179055505050565b6065602052816000526040600020602052806000526040600020600091509150505481565b6126b767d0dd54b2cd10d7bd60c01b610830565b7f000000000000000000000000000000000000000000000000000000000000000073ffffffffffffffffffffffffffffffffffffffff163073ffffffffffffffffffffffffffffffffffffffff1603612745576040517f08c379a000000000000000000000000000000000000000000000000000000000815260040161273c9061847f565b60405180910390fd5b7f000000000000000000000000000000000000000000000000000000000000000073ffffffffffffffffffffffffffffffffffffffff16612784613d2a565b73ffffffffffffffffffffffffffffffffffffffff16146127da576040517f08c379a00000000000000000000000000000000000000000000000000000000081526004016127d190618511565b60405180910390fd5b6127ee672a4fda3a416d329460c01b610830565b61280267ef8dc43f35b0177060c01b610830565b61281667f0377d1f6046535060c01b610830565b61282a67512e16d8f753291560c01b610830565b60008163ffffffff16036128925761284c67adc8381668b2d2fd60c01b610830565b612860673fdecc18ffb98b3660c01b610830565b6040517f65e37c6e00000000000000000000000000000000000000000000000000000000815260040160405180910390fd5b6128a6674e75e8c87af2090360c01b610830565b6128ba67f95312f67752609860c01b610830565b6128ce671c462240a042e5c960c01b610830565b60006128e467543903bd74769ded60c01b610830565b6128f867c2d1aa4487e8e8e760c01b610830565b600061290e67a9f2f7d73fb9d41360c01b610830565b61292267a996c893f3f77c1d60c01b610830565b6000606760009054906101000a900473ffffffffffffffffffffffffffffffffffffffff1673ffffffffffffffffffffffffffffffffffffffff166398dbe72c6040518163ffffffff1660e01b8152600401602060405180830381865afa158015612991573d6000803e3d6000fd5b505050506040513d601f19601f820116820180604052508101906129b59190617699565b73ffffffffffffffffffffffffffffffffffffffff168573ffffffffffffffffffffffffffffffffffffffff161490506129f96762b1e9c30e11642e60c01b610830565b808015612a165750612a156758bbea7a5502c72960c01b6152d1565b5b80612a315750612a306703997775d590a84e60c01b6152dc565b5b612a3b5784612acd565b606760009054906101000a900473ffffffffffffffffffffffffffffffffffffffff1673ffffffffffffffffffffffffffffffffffffffff166370671eb16040518163ffffffff1660e01b8152600401602060405180830381865afa158015612aa8573d6000803e3d6000fd5b505050506040513d601f19601f82011682018060405250810190612acc9190617699565b5b9450612ae367e74af54f816fd0c960c01b610830565b612af76755e6866975bbc5c660c01b610830565b5b6005831015612c4b57612b15670b34d5a682b2db2760c01b610830565b612b2967ce7aadddee2c2f4960c01b610830565b8363ffffffff16606660003373ffffffffffffffffffffffffffffffffffffffff1673ffffffffffffffffffffffffffffffffffffffff16815260200190815260200160002060008773ffffffffffffffffffffffffffffffffffffffff1673ffffffffffffffffffffffffffffffffffffffff1681526020019081526020016000208460058110612bbe57612bbd6182c3565b5b6002020160010160009054906101000a900463ffffffff1663ffffffff1603612c2657612bf5678535facba2fcdb8f60c01b610830565b612c0967859d6c86a69f351b60c01b610830565b60019150612c2167ce8b5f76af2722d460c01b610830565b612c4b565b612c3a6758ae30979a5886cf60c01b610830565b82612c449061838d565b9250612af8565b612c5f67aa1f8c6aaf7551a360c01b610830565b612c7367f092535797bd511260c01b610830565b81612ce157612c8c67ac6c0df978e2176a60c01b610830565b612ca067ea53b9a6cf113c1760c01b610830565b3385856040517f73f54e44000000000000000000000000000000000000000000000000000000008152600401612cd8939291906186fa565b60405180910390fd5b612cf567d4785b390904463660c01b610830565b612d0967d08ee38a79be5ac460c01b610830565b612d1d67ef7b581a95c2034d60c01b610830565b606c60009054906101000a900463ffffffff16606660003373ffffffffffffffffffffffffffffffffffffffff1673ffffffffffffffffffffffffffffffffffffffff16815260200190815260200160002060008773ffffffffffffffffffffffffffffffffffffffff1673ffffffffffffffffffffffffffffffffffffffff1681526020019081526020016000208460058110612dbe57612dbd6182c3565b5b6002020160010160009054906101000a900463ffffffff16612de09190618321565b63ffffffff164211612e5757612e00673f6bce3bd21532da60c01b610830565b612e14676902e0f51364a6db60c01b610830565b338585426040517f88219c12000000000000000000000000000000000000000000000000000000008152600401612e4e9493929190618731565b60405180910390fd5b612e6b6799e1ded128d13ccf60c01b610830565b612e7f673ac1759f857d861260c01b610830565b612e9367753c7770255838a560c01b610830565b6000606660003373ffffffffffffffffffffffffffffffffffffffff1673ffffffffffffffffffffffffffffffffffffffff16815260200190815260200160002060008773ffffffffffffffffffffffffffffffffffffffff1673ffffffffffffffffffffffffffffffffffffffff1681526020019081526020016000208460058110612f2357612f226182c3565b5b60020201600001549050612f4167605ffb81127f076760c01b610830565b604051806040016040528060008152602001600063ffffffff16815250606660003373ffffffffffffffffffffffffffffffffffffffff1673ffffffffffffffffffffffffffffffffffffffff16815260200190815260200160002060008873ffffffffffffffffffffffffffffffffffffffff1673ffffffffffffffffffffffffffffffffffffffff1681526020019081526020016000208560058110612fec57612feb6182c3565b5b600202016000820151816000015560208201518160010160006101000a81548163ffffffff021916908363ffffffff1602179055509050506130386721c12178f4a5c65160c01b610830565b61304c67558261c7396dc5b360c01b610830565b6130573387866157bd565b61306b67a58d1ec1ac71374d60c01b610830565b61307f6734540dfc75b8aa2460c01b610830565b811561326e57613099670352691654ef181060c01b610830565b6130ad679027f9fab7eeecbf60c01b610830565b6130c1673ea3c2adb80341ad60c01b610830565b8573ffffffffffffffffffffffffffffffffffffffff16632e1a7d4d826040518263ffffffff1660e01b81526004016130fa91906177e6565b600060405180830381600087803b15801561311457600080fd5b505af1158015613128573d6000803e3d6000fd5b505050506131406730ed5029c7c95e7b60c01b610830565b61315467bce06f21839c715f60c01b610830565b60003373ffffffffffffffffffffffffffffffffffffffff168260405161317a906187a7565b60006040518083038185875af1925050503d80600081146131b7576040519150601f19603f3d011682016040523d82523d6000602084013e6131bc565b606091505b505090506131d467277bd351fe08edd060c01b610830565b6131e867b598f2d603ee0ae760c01b610830565b806132545761320167354b28e613feb4bb60c01b610830565b61321567dd3ab0b7e0fc146160c01b610830565b33826040517fdea95fba00000000000000000000000000000000000000000000000000000000815260040161324b9291906187bc565b60405180910390fd5b613268676741e596e4c805e560c01b610830565b506132d6565b613282679d4689453d7948f260c01b610830565b61329667bb51f980e9fe8d8560c01b610830565b6132aa6732486fa0c01fea3360c01b610830565b6132d533828873ffffffffffffffffffffffffffffffffffffffff166158799092919063ffffffff16565b5b6132ea677fe236ccd9d2270260c01b610830565b6132fe676668a838d1183d4c60c01b610830565b8573ffffffffffffffffffffffffffffffffffffffff163373ffffffffffffffffffffffffffffffffffffffff167f5c5afdaa415721006e81fa898ab18a641c5f66105afb80e65fe9b6e1e9017457838860405161335d929190617955565b60405180910390a3505050505050565b600581565b6133866777e846fa860f1d5860c01b610830565b61339a67dcc5bf6753d52da760c01b610830565b6133ae672bff8147e9f34e9a60c01b610830565b6133c267d833a6fa45bb4a7460c01b610830565b606960009054906101000a900473ffffffffffffffffffffffffffffffffffffffff1673ffffffffffffffffffffffffffffffffffffffff163373ffffffffffffffffffffffffffffffffffffffff16146134a05761342b67577626291c88a2a360c01b610830565b61343f6790c240a8e945296060c01b610830565b33606960009054906101000a900473ffffffffffffffffffffffffffffffffffffffff166040517fb1fba991000000000000000000000000000000000000000000000000000000008152600401613497929190618531565b60405180910390fd5b6134b467fa22683d2b08a21e60c01b610830565b6134c867fae89ce2a020f75d60c01b610830565b6134dc677f8fdf917e4159a060c01b610830565b6134f067f617ffde32b49d0760c01b610830565b61350467119714e02749b82f60c01b610830565b613518678cb9582a91235e2e60c01b610830565b613523838383614a0b565b505050565b61353c67557436b52f608bb960c01b610830565b60008060019054906101000a900460ff1615905080801561356d5750600160008054906101000a900460ff1660ff16105b8061359a575061357c306158ff565b1580156135995750600160008054906101000a900460ff1660ff16145b5b6135d9576040517f08c379a00000000000000000000000000000000000000000000000000000000081526004016135d090618857565b60405180910390fd5b60016000806101000a81548160ff021916908360ff1602179055508015613616576001600060016101000a81548160ff0219169083151502179055505b61362a67befff03e2a7c682460c01b610830565b61363e6707f38a979dcf7ae060c01b610830565b61365267ca42beae3cc8e5b760c01b610830565b613666674b3a00ef85c88fde60c01b610830565b6136738686868686615922565b80156136cc5760008060016101000a81548160ff0219169083151502179055507f7f26b83ff96e1f2b6a682f133852f6798a09c465da95921460cefb384740249860016040516136c391906188bf565b60405180910390a15b505050505050565b6136e867ee9890bbb1a8dd8860c01b610830565b6136fc67dcc5bf6753d52da760c01b610830565b613710672bff8147e9f34e9a60c01b610830565b61372467d833a6fa45bb4a7460c01b610830565b606960009054906101000a900473ffffffffffffffffffffffffffffffffffffffff1673ffffffffffffffffffffffffffffffffffffffff163373ffffffffffffffffffffffffffffffffffffffff16146138025761378d67577626291c88a2a360c01b610830565b6137a16790c240a8e945296060c01b610830565b33606960009054906101000a900473ffffffffffffffffffffffffffffffffffffffff166040517fb1fba9910000000000000000000000000000000000000000000000000000000081526004016137f9929190618531565b60405180910390fd5b61381667fa22683d2b08a21e60c01b610830565b61382a67fae89ce2a020f75d60c01b610830565b61383e675a09be2769a3e59660c01b610830565b61385267b177f0ab1e0406cd60c01b610830565b61386667f4c0da471465900d60c01b610830565b61387a67bd575ceb1061186360c01b610830565b613885838383615a19565b505050565b606e805461389790618292565b80601f01602080910402602001604051908101604052809291908181526020018280546138c390618292565b80156139105780601f106138e557610100808354040283529160200191613910565b820191906000526020600020905b8154815290600101906020018083116138f357829003601f168201915b505050505081565b606c60009054906101000a900463ffffffff1681565b613942672358ec76207c545160c01b610830565b7f000000000000000000000000000000000000000000000000000000000000000073ffffffffffffffffffffffffffffffffffffffff163073ffffffffffffffffffffffffffffffffffffffff16036139d0576040517f08c379a00000000000000000000000000000000000000000000000000000000081526004016139c79061847f565b60405180910390fd5b7f000000000000000000000000000000000000000000000000000000000000000073ffffffffffffffffffffffffffffffffffffffff16613a0f613d2a565b73ffffffffffffffffffffffffffffffffffffffff1614613a65576040517f08c379a0000000000000000000000000000000000000000000000000000000008152600401613a5c90618511565b60405180910390fd5b613a79676ba5086e3f3e07eb60c01b610830565b613a8d67512bff18c37fbd2360c01b610830565b613aa167877a0e6da2fe966b60c01b610830565b613ab56758f03721f11080da60c01b610830565b613ac0338383615a19565b5050565b600080613adb67a83bda6c5c05aaa660c01b610830565b613aef672fdae3f2919931a360c01b610830565b613af883616208565b9150613b0e67c4281f8de4fd4bc360c01b610830565b818015613b2b5750613b2a67ab14a755cbb92f8660c01b6152d1565b5b80613b465750613b456707ac82a9b61f6d0360c01b6152dc565b5b613b505782613be2565b606760009054906101000a900473ffffffffffffffffffffffffffffffffffffffff1673ffffffffffffffffffffffffffffffffffffffff166370671eb16040518163ffffffff1660e01b8152600401602060405180830381865afa158015613bbd573d6000803e3d6000fd5b505050506040513d601f19601f82011682018060405250810190613be19190617699565b5b9050915091565b50565b6000613c0267ef9710ef0680870360c01b613be9565b613c166786dc4637bb9746db60c01b613be9565b613c2a6753a6ae70364a476f60c01b613be9565b613c567f3ff07d6b238084e39fc5d050e304626ccf5b5ccb8f457170664beef2c5e4919a60001b61630c565b60000160009054906101000a900473ffffffffffffffffffffffffffffffffffffffff16905090565b613c936733cb68750a89208a60c01b610830565b613ca76788a8feab01c31c4960c01b610830565b80606c60006101000a81548163ffffffff021916908363ffffffff160217905550613cdc67e745b4c234f38d1960c01b610830565b613cf067dbe7ef54dce67b4f60c01b610830565b7f36fcca783b3a5a9e5a886dcad17e9277cced630425f9c088488feba3f1f5f8e381604051613d1f9190617dd5565b60405180910390a150565b6000613d587f360894a13ba1a3210667c828492db98dca3e2076cc3735a920a3ca505d382bbc60001b61630c565b60000160009054906101000a900473ffffffffffffffffffffffffffffffffffffffff16905090565b613d9567086c4c3a5f824fe860c01b610830565b6000801b613dad67b800a060f3dcd44360c01b613be9565b613dc167011166f4f02cfe9560c01b613be9565b613dd567e13f3f16311a0b8a60c01b613be9565b613ddd613bec565b73ffffffffffffffffffffffffffffffffffffffff166312d9a6ad82336040518363ffffffff1660e01b8152600401613e179291906183e4565b60006040518083038186803b158015613e2f57600080fd5b505afa158015613e43573d6000803e3d6000fd5b50505050613e5b677d0517721a0a81ed60c01b613be9565b613e6f67127f7e743ac3ff9f60c01b610830565b613e8367385a26f5ccfc0f2560c01b610830565b5050565b613eb37f4910fdfa16fed3260ed0e7147f7cc6da11a60208b5b9406d12a635614ffd914360001b616316565b60000160009054906101000a900460ff1615613ed757613ed283616320565b613ff0565b8273ffffffffffffffffffffffffffffffffffffffff166352d1902d6040518163ffffffff1660e01b8152600401602060405180830381865afa925050508015613f3f57506040513d601f19601f82011682018060405250810190613f3c9190618906565b60015b613f7e576040517f08c379a0000000000000000000000000000000000000000000000000000000008152600401613f75906189a5565b60405180910390fd5b7f360894a13ba1a3210667c828492db98dca3e2076cc3735a920a3ca505d382bbc60001b8114613fe3576040517f08c379a0000000000000000000000000000000000000000000000000000000008152600401613fda90618a37565b60405180910390fd5b50613fef8383836163d9565b5b505050565b600061400b6720faa5ed335a90b160c01b610830565b61401f67343931fad840623360c01b610830565b61403367d35f099672b5ebc160c01b610830565b60008263ffffffff160361409b5761405567e33b3d898e6957b060c01b610830565b6140696793917473898e068360c01b610830565b6040517f037efbeb00000000000000000000000000000000000000000000000000000000815260040160405180910390fd5b6140af67b54c334aba8a96c060c01b610830565b6140c367b33c9db8d2ed09c960c01b610830565b6140d76784f1b7922638327860c01b610830565b60006140ed674ae2a9e2c7e64df260c01b610830565b6141016777cbd16c0040ac4b60c01b610830565b5b600581101561423d5761411f671013366cd1e8e1c360c01b610830565b614133672b093715441d540060c01b610830565b8263ffffffff16606660008773ffffffffffffffffffffffffffffffffffffffff1673ffffffffffffffffffffffffffffffffffffffff16815260200190815260200160002060008673ffffffffffffffffffffffffffffffffffffffff1673ffffffffffffffffffffffffffffffffffffffff16815260200190815260200160002082600581106141c8576141c76182c3565b5b6002020160010160009054906101000a900463ffffffff1663ffffffff1603614218576141ff6767bbb95aabe7212660c01b610830565b61421367c4e9211dd8abe09660c01b610830565b61423d565b61422c67039cebb1716e066760c01b610830565b806142369061838d565b9050614102565b61425167cb0843e1a8841c9e60c01b610830565b61426567e45c82da6eddda8c60c01b610830565b600581036142d657614281679e1232e784964f1660c01b610830565b614295679cea178a49fef6db60c01b610830565b8484846040517f73f54e440000000000000000000000000000000000000000000000000000000081526004016142cd939291906186fa565b60405180910390fd5b6142ea67fb0f1f7fac8c39b360c01b610830565b6142fe674d0807a5eb48cf0960c01b610830565b61431267c825d2fe4421d39c60c01b610830565b606c60009054906101000a900463ffffffff16606660008773ffffffffffffffffffffffffffffffffffffffff1673ffffffffffffffffffffffffffffffffffffffff16815260200190815260200160002060008673ffffffffffffffffffffffffffffffffffffffff1673ffffffffffffffffffffffffffffffffffffffff16815260200190815260200160002082600581106143b3576143b26182c3565b5b6002020160010160009054906101000a900463ffffffff166143d59190618321565b63ffffffff16421161444c576143f5675c7fa8ba210c3f6f60c01b610830565b61440967a05dfbcc808b8cd160c01b610830565b848484426040517f88219c120000000000000000000000000000000000000000000000000000000081526004016144439493929190618731565b60405180910390fd5b614460670cc8818f95d8c81860c01b610830565b6144746707f5a23ca591442960c01b610830565b614488671f2f139ee4044bae60c01b610830565b6000606660008773ffffffffffffffffffffffffffffffffffffffff1673ffffffffffffffffffffffffffffffffffffffff16815260200190815260200160002060008673ffffffffffffffffffffffffffffffffffffffff1673ffffffffffffffffffffffffffffffffffffffff1681526020019081526020016000208260058110614518576145176182c3565b5b6002020160000154905061453667c09bf5ff613614ad60c01b610830565b604051806040016040528060008152602001600063ffffffff16815250606660008873ffffffffffffffffffffffffffffffffffffffff1673ffffffffffffffffffffffffffffffffffffffff16815260200190815260200160002060008773ffffffffffffffffffffffffffffffffffffffff1673ffffffffffffffffffffffffffffffffffffffff16815260200190815260200160002083600581106145e1576145e06182c3565b5b600202016000820151816000015560208201518160010160006101000a81548163ffffffff021916908363ffffffff16021790555090505061462d672c524b4f362e59ec60c01b610830565b614641670809f85d599dbdb660c01b610830565b61464c8686846157bd565b61466067fb9958381a0c8b8760c01b610830565b614674676e1c9bc288538a8d60c01b610830565b80925050509392505050565b6060600060028360026146939190618a57565b61469d9190618359565b67ffffffffffffffff8111156146b6576146b5617a4a565b5b6040519080825280601f01601f1916602001820160405280156146e85781602001600182028036833780820191505090505b5090507f3000000000000000000000000000000000000000000000000000000000000000816000815181106147205761471f6182c3565b5b60200101907effffffffffffffffffffffffffffffffffffffffffffffffffffffffffffff1916908160001a9053507f780000000000000000000000000000000000000000000000000000000000000081600181518110614784576147836182c3565b5b60200101907effffffffffffffffffffffffffffffffffffffffffffffffffffffffffffff1916908160001a905350600060018460026147c49190618a57565b6147ce9190618359565b90505b600181111561486e577f3031323334353637383961626364656600000000000000000000000000000000600f8616601081106148105761480f6182c3565b5b1a60f81b828281518110614827576148266182c3565b5b60200101907effffffffffffffffffffffffffffffffffffffffffffffffffffffffffffff1916908160001a905350600485901c94508061486790618a99565b90506147d1565b50600084146148b2576040517f08c379a00000000000000000000000000000000000000000000000000000000081526004016148a990618b0e565b60405180910390fd5b8091505092915050565b6000811480614946575060008373ffffffffffffffffffffffffffffffffffffffff1663dd62ed3e30856040518363ffffffff1660e01b8152600401614903929190618531565b602060405180830381865afa158015614920573d6000803e3d6000fd5b505050506040513d601f19601f820116820180604052508101906149449190618b43565b145b614985576040517f08c379a000000000000000000000000000000000000000000000000000000000815260040161497c90618be2565b60405180910390fd5b614a068363095ea7b360e01b84846040516024016149a49291906187bc565b604051602081830303815290604052907bffffffffffffffffffffffffffffffffffffffffffffffffffffffff19166020820180517bffffffffffffffffffffffffffffffffffffffffffffffffffffffff8381831617835250505050616405565b505050565b614a1f673ece7b2de9a8ad1060c01b610830565b614a336744e0481e6ffc95cf60c01b610830565b614a4767789b20770099a69c60c01b610830565b6000606760009054906101000a900473ffffffffffffffffffffffffffffffffffffffff1673ffffffffffffffffffffffffffffffffffffffff166398dbe72c6040518163ffffffff1660e01b8152600401602060405180830381865afa158015614ab6573d6000803e3d6000fd5b505050506040513d601f19601f82011682018060405250810190614ada9190617699565b73ffffffffffffffffffffffffffffffffffffffff168373ffffffffffffffffffffffffffffffffffffffff16149050614b1e67635e32733292728f60c01b610830565b614b32674131d8ecd52e72a660c01b610830565b80158015614b41575060003414155b15614bab57614b5a674493c22e0f70218f60c01b610830565b614b6e67055fc7788a10c5eb60c01b610830565b346040517f665245ed000000000000000000000000000000000000000000000000000000008152600401614ba291906177e6565b60405180910390fd5b614bbf67039dc151e0c9fc5560c01b610830565b614bd3673ddadaf0bbdf158760c01b610830565b614be767bec5e93c1141395a60c01b610830565b6000818015614c065750614c056788de2d784db9231d60c01b6152d1565b5b80614c215750614c206721c2cbb675a6d8ac60c01b6152dc565b5b614c2b5782614c2d565b345b9050614c43670a9956701920173f60c01b610830565b614c57674db76fdf66f15e3d60c01b610830565b60008103614cb957614c7367fa1d3dda67a4bcfd60c01b610830565b614c87676e49dd0589381c2a60c01b610830565b6040517feca6f47b00000000000000000000000000000000000000000000000000000000815260040160405180910390fd5b614ccd678c4361edcf07b52060c01b610830565b614ce167c631a499b3d92e7660c01b610830565b818015614cfe5750614cfd6701b0e7fcad092bea60c01b6152d1565b5b80614d195750614d1867c818678da3b4c90060c01b6152dc565b5b614d235783614db5565b606760009054906101000a900473ffffffffffffffffffffffffffffffffffffffff1673ffffffffffffffffffffffffffffffffffffffff166370671eb16040518163ffffffff1660e01b8152600401602060405180830381865afa158015614d90573d6000803e3d6000fd5b505050506040513d601f19601f82011682018060405250810190614db49190617699565b5b9350614dcb670dffa267716878ec60c01b610830565b614ddf67869745efee07e03260c01b610830565b606860009054906101000a900473ffffffffffffffffffffffffffffffffffffffff1673ffffffffffffffffffffffffffffffffffffffff166380691fba6040518163ffffffff1660e01b8152600401602060405180830381865afa158015614e4c573d6000803e3d6000fd5b505050506040513d601f19601f82011682018060405250810190614e709190618c40565b73ffffffffffffffffffffffffffffffffffffffff16639532b6ab856040518263ffffffff1660e01b8152600401614ea89190618646565b60006040518083038186803b158015614ec057600080fd5b505afa158015614ed4573d6000803e3d6000fd5b50505050614eec67ea49b2970b0533ef60c01b610830565b614f0067d9eb0c7c3ecc5d8660c01b610830565b8115614fa857614f1a67c52ad3478410345f60c01b610830565b614f2e67f8a0a6022695bcb260c01b610830565b614f4267ebfdf1b9d750120b60c01b610830565b8373ffffffffffffffffffffffffffffffffffffffff1663d0e30db0826040518263ffffffff1660e01b81526004016000604051808303818588803b158015614f8a57600080fd5b505af1158015614f9e573d6000803e3d6000fd5b5050505050615076565b614fbc67770aaaa05a584e4260c01b610830565b614fd067567e2da677c1aeb260c01b610830565b614fe467ed4935aeddb1d82260c01b610830565b606760009054906101000a900473ffffffffffffffffffffffffffffffffffffffff1673ffffffffffffffffffffffffffffffffffffffff1663310550c43386846040518463ffffffff1660e01b815260040161504393929190618c6d565b600060405180830381600087803b15801561505d57600080fd5b505af1158015615071573d6000803e3d6000fd5b505050505b61508a670e2927cb76f5200260c01b610830565b80606b60008773ffffffffffffffffffffffffffffffffffffffff1673ffffffffffffffffffffffffffffffffffffffff16815260200190815260200160002060008673ffffffffffffffffffffffffffffffffffffffff1673ffffffffffffffffffffffffffffffffffffffff168152602001908152602001600020546151129190618359565b606b60008773ffffffffffffffffffffffffffffffffffffffff1673ffffffffffffffffffffffffffffffffffffffff16815260200190815260200160002060008673ffffffffffffffffffffffffffffffffffffffff1673ffffffffffffffffffffffffffffffffffffffff168152602001908152602001600020819055506151a667f6430a10c021e85060c01b610830565b6151ba67d029978ae1caf8df60c01b610830565b8373ffffffffffffffffffffffffffffffffffffffff168573ffffffffffffffffffffffffffffffffffffffff167ff612619d68e93ed9c83201f21e26b217bb643e4376384c88ba83a71fb687c3468360405161521791906177e6565b60405180910390a35050505050565b61523a67e873e1deaec3f43560c01b610830565b61524e67851ea72fbc39c06260c01b610830565b80606c60046101000a81548163ffffffff021916908363ffffffff16021790555061528367f173b4f77df3456560c01b610830565b615297674acae388e0dba7c660c01b610830565b7f534f1642f4e77270c83d0350beb1ac519c33cb8853105a4260df67ad8b8cb415816040516152c69190617dd5565b60405180910390a150565b600060019050919050565b6000919050565b6152f767a197dc0651bafa9a60c01b610830565b61530b67452657dae87f1a7660c01b610830565b61531f67317f7094b1f44a1560c01b610830565b60006153356778aff35248dd79c760c01b610830565b61534967961898f8803cf42d60c01b610830565b600082138015615369575061536867a8217a8b2c8ff50860c01b6152d1565b5b8061541557508161537990618ca4565b606b60008673ffffffffffffffffffffffffffffffffffffffff1673ffffffffffffffffffffffffffffffffffffffff16815260200190815260200160002060008573ffffffffffffffffffffffffffffffffffffffff1673ffffffffffffffffffffffffffffffffffffffff16815260200190815260200160002054101580156154145750615413673e6357e260754e9360c01b6152d1565b5b5b1561544a5761542e67ba83844951e3157760c01b610830565b6154426759a656a8a22b88f660c01b610830565b81905061569b565b61545e6717f5f095017b00f960c01b610830565b61547267477c19b24900f52460c01b610830565b61548667481b74d37bc7a0e660c01b610830565b60008261549290618ca4565b90506154a8673ca7a427ac725f0360c01b610830565b606b60008673ffffffffffffffffffffffffffffffffffffffff1673ffffffffffffffffffffffffffffffffffffffff16815260200190815260200160002060008573ffffffffffffffffffffffffffffffffffffffff1673ffffffffffffffffffffffffffffffffffffffff1681526020019081526020016000205461552e90618ca4565b91506155446789adde1d98121a8360c01b610830565b615558679ccc2e81eeabe59760c01b610830565b6000606b60008773ffffffffffffffffffffffffffffffffffffffff1673ffffffffffffffffffffffffffffffffffffffff16815260200190815260200160002060008673ffffffffffffffffffffffffffffffffffffffff1673ffffffffffffffffffffffffffffffffffffffff16815260200190815260200160002054826155e29190618cec565b90506155f86780c54761af028d0560c01b610830565b61560c67f252b02358a74b9360c01b610830565b6156178686836164cc565b6156845761562f6707e73e2a5017133b60c01b610830565b615643676b9be4506110036e60c01b610830565b8585826040517f0244d97c00000000000000000000000000000000000000000000000000000000815260040161567b93929190618c6d565b60405180910390fd5b61569867e45f2d3056c2aa1c60c01b610830565b50505b6156af672cc7154b74f3384360c01b610830565b80606b60008673ffffffffffffffffffffffffffffffffffffffff1673ffffffffffffffffffffffffffffffffffffffff16815260200190815260200160002060008573ffffffffffffffffffffffffffffffffffffffff1673ffffffffffffffffffffffffffffffffffffffff168152602001908152602001600020546157379190618d20565b606b60008673ffffffffffffffffffffffffffffffffffffffff1673ffffffffffffffffffffffffffffffffffffffff16815260200190815260200160002060008573ffffffffffffffffffffffffffffffffffffffff1673ffffffffffffffffffffffffffffffffffffffff1681526020019081526020016000208190555050505050565b6157d167d68351202bb0243760c01b610830565b6157e56710cf101d19c0ec8d60c01b610830565b806001901b19606560008573ffffffffffffffffffffffffffffffffffffffff1673ffffffffffffffffffffffffffffffffffffffff16815260200190815260200160002060008473ffffffffffffffffffffffffffffffffffffffff1673ffffffffffffffffffffffffffffffffffffffff16815260200190815260200160002060008282541692505081905550505050565b6158fa8363a9059cbb60e01b84846040516024016158989291906187bc565b604051602081830303815290604052907bffffffffffffffffffffffffffffffffffffffffffffffffffffffff19166020820180517bffffffffffffffffffffffffffffffffffffffffffffffffffffffff8381831617835250505050616405565b505050565b6000808273ffffffffffffffffffffffffffffffffffffffff163b119050919050565b615936673b47beaa2edf7dfb60c01b610830565b600060019054906101000a900460ff16615985576040517f08c379a000000000000000000000000000000000000000000000000000000000815260040161597c90618dd6565b60405180910390fd5b6159996752fcb6b2b124f93160c01b610830565b6159ad67e56d8c723190e87b60c01b610830565b6159c16728f3c255a32eef1560c01b610830565b6159d567efdc82ff8fa0145360c01b610830565b6159de85616a88565b6159f26793f1e47744a91e0160c01b610830565b615a0667fc450dbe712dad0d60c01b610830565b615a1284848484616b47565b5050505050565b615a2d6724779b311c028c9b60c01b610830565b615a41674e1a42d724c7ea6660c01b610830565b615a55675dedf4565cdb3d5860c01b610830565b60008103615ab757615a71679ea64f10434e09da60c01b610830565b615a8567a970d270ca491e5360c01b610830565b6040517f7ea773a900000000000000000000000000000000000000000000000000000000815260040160405180910390fd5b615acb67ac10a65451c48a3360c01b610830565b615adf67514b5a06b636093a60c01b610830565b606760009054906101000a900473ffffffffffffffffffffffffffffffffffffffff1673ffffffffffffffffffffffffffffffffffffffff166398dbe72c6040518163ffffffff1660e01b8152600401602060405180830381865afa158015615b4c573d6000803e3d6000fd5b505050506040513d601f19601f82011682018060405250810190615b709190617699565b73ffffffffffffffffffffffffffffffffffffffff168273ffffffffffffffffffffffffffffffffffffffff16148015615bba5750615bb9675a57a978dd2cf3e160c01b6152d1565b5b80615bd55750615bd467e38846f14561081e60c01b6152dc565b5b615bdf5781615c71565b606760009054906101000a900473ffffffffffffffffffffffffffffffffffffffff1673ffffffffffffffffffffffffffffffffffffffff166370671eb16040518163ffffffff1660e01b8152600401602060405180830381865afa158015615c4c573d6000803e3d6000fd5b505050506040513d601f19601f82011682018060405250810190615c709190617699565b5b9150615c8767f72b1299d7aa3aed60c01b610830565b615c9b67e4f3cfe034d37bad60c01b610830565b606b60008473ffffffffffffffffffffffffffffffffffffffff1673ffffffffffffffffffffffffffffffffffffffff16815260200190815260200160002060008373ffffffffffffffffffffffffffffffffffffffff1673ffffffffffffffffffffffffffffffffffffffff16815260200190815260200160002054811115615e0257615d33671659c8107744e4b860c01b610830565b615d4767d95788798758cd1a60c01b610830565b80606b60008573ffffffffffffffffffffffffffffffffffffffff1673ffffffffffffffffffffffffffffffffffffffff16815260200190815260200160002060008473ffffffffffffffffffffffffffffffffffffffff1673ffffffffffffffffffffffffffffffffffffffff168152602001908152602001600020546040517f03eb8b54000000000000000000000000000000000000000000000000000000008152600401615df9929190618df6565b60405180910390fd5b615e16670cae1ffa6a371a5a60c01b610830565b615e2a67559d47af596c277860c01b610830565b80606b60008573ffffffffffffffffffffffffffffffffffffffff1673ffffffffffffffffffffffffffffffffffffffff16815260200190815260200160002060008473ffffffffffffffffffffffffffffffffffffffff1673ffffffffffffffffffffffffffffffffffffffff16815260200190815260200160002054615eb29190618cec565b606b60008573ffffffffffffffffffffffffffffffffffffffff1673ffffffffffffffffffffffffffffffffffffffff16815260200190815260200160002060008473ffffffffffffffffffffffffffffffffffffffff1673ffffffffffffffffffffffffffffffffffffffff16815260200190815260200160002081905550615f46677c2aa122e167eb5760c01b610830565b615f5a6780b555b56e85040e60c01b610830565b6000615f668484616e78565b9050615f7c675f7d9a5d6710e92c60c01b610830565b615f90670acdb2c0eb26cc8160c01b610830565b60058110615ffd57615fac671b8620616e38526d60c01b610830565b615fc0671c604a0edb41989660c01b610830565b826040517fa30937d6000000000000000000000000000000000000000000000000000000008152600401615ff49190618646565b60405180910390fd5b61601167da714fe61f6460e060c01b610830565b616025674ad2e0615d76793a60c01b610830565b61603967e255f0459f72b3a560c01b610830565b616044848483617067565b61605867ba0a0a32154957fa60c01b610830565b61606c670ecccbb0b0c9f05f60c01b610830565b600042905061608567c95e098d340ba68060c01b610830565b60405180604001604052808481526020018263ffffffff16815250606660008773ffffffffffffffffffffffffffffffffffffffff1673ffffffffffffffffffffffffffffffffffffffff16815260200190815260200160002060008673ffffffffffffffffffffffffffffffffffffffff1673ffffffffffffffffffffffffffffffffffffffff168152602001908152602001600020836005811061612e5761612d6182c3565b5b600202016000820151816000015560208201518160010160006101000a81548163ffffffff021916908363ffffffff16021790555090505061617a678a7ace1382d786fc60c01b610830565b61618e67209a5153bd0a9e2760c01b610830565b8373ffffffffffffffffffffffffffffffffffffffff168573ffffffffffffffffffffffffffffffffffffffff167f1672503816a4c50ff377d812f2d776dd8fe60d0a7cd683cd2d3b8525a465e729856001866161eb9190618359565b6040516161f9929190618df6565b60405180910390a35050505050565b600061621e67926524b8388be21960c01b610830565b6162326712043e078625d81e60c01b610830565b616246670106350369a0d6c560c01b610830565b606760009054906101000a900473ffffffffffffffffffffffffffffffffffffffff1673ffffffffffffffffffffffffffffffffffffffff166398dbe72c6040518163ffffffff1660e01b8152600401602060405180830381865afa1580156162b3573d6000803e3d6000fd5b505050506040513d601f19601f820116820180604052508101906162d79190617699565b73ffffffffffffffffffffffffffffffffffffffff168273ffffffffffffffffffffffffffffffffffffffff16149050919050565b6000819050919050565b6000819050919050565b616329816158ff565b616368576040517f08c379a000000000000000000000000000000000000000000000000000000000815260040161635f90618e91565b60405180910390fd5b806163957f360894a13ba1a3210667c828492db98dca3e2076cc3735a920a3ca505d382bbc60001b61630c565b60000160006101000a81548173ffffffffffffffffffffffffffffffffffffffff021916908373ffffffffffffffffffffffffffffffffffffffff16021790555050565b6163e283617122565b6000825111806163ef5750805b15616400576163fe8383617171565b505b505050565b6000616467826040518060400160405280602081526020017f5361666545524332303a206c6f772d6c6576656c2063616c6c206661696c65648152508573ffffffffffffffffffffffffffffffffffffffff166172559092919063ffffffff16565b90506000815111156164c757808060200190518101906164879190618699565b6164c6576040517f08c379a00000000000000000000000000000000000000000000000000000000081526004016164bd90618f23565b60405180910390fd5b5b505050565b60006164e267271096f0969ff6d360c01b610830565b6164f667d15d64e212c632ae60c01b610830565b61650a670793e2d13b7fece360c01b610830565b6000616520671f3f232bed55e6c860c01b610830565b6165346717079c2ed14db89c60c01b610830565b60005b6005811015616a7f576165546758ae20149f79f75b60c01b610830565b616568677d8c4ebcc2b6f6a160c01b610830565b42606c60049054906101000a900463ffffffff16606660008973ffffffffffffffffffffffffffffffffffffffff1673ffffffffffffffffffffffffffffffffffffffff16815260200190815260200160002060008873ffffffffffffffffffffffffffffffffffffffff1673ffffffffffffffffffffffffffffffffffffffff168152602001908152602001600020836005811061660a576166096182c3565b5b6002020160010160009054906101000a900463ffffffff1661662c9190618321565b63ffffffff1611156169d15761664c6799e468d24d9900a660c01b610830565b6166606736b73f35d9ee720b60c01b610830565b616674679a40a7818fb666aa60c01b610830565b600082856166829190618cec565b9050616698677a4fe2fae1151f4d60c01b610830565b6166ac679d43c55c229b181a60c01b610830565b6000606660008973ffffffffffffffffffffffffffffffffffffffff1673ffffffffffffffffffffffffffffffffffffffff16815260200190815260200160002060008873ffffffffffffffffffffffffffffffffffffffff1673ffffffffffffffffffffffffffffffffffffffff168152602001908152602001600020836005811061673c5761673b6182c3565b5b6002020160000154905061675a67f0baaacb0c23a45d60c01b610830565b61676e67c549b44560afaf7660c01b610830565b8181116168da5761678967d66c59936a909c9160c01b610830565b61679d67659ecde2f1eacb1460c01b610830565b80846167a99190618359565b93506167bf67ac69075f228abfd160c01b610830565b604051806040016040528060008152602001600063ffffffff16815250606660008a73ffffffffffffffffffffffffffffffffffffffff1673ffffffffffffffffffffffffffffffffffffffff16815260200190815260200160002060008973ffffffffffffffffffffffffffffffffffffffff1673ffffffffffffffffffffffffffffffffffffffff168152602001908152602001600020846005811061686a576168696182c3565b5b600202016000820151816000015560208201518160010160006101000a81548163ffffffff021916908363ffffffff1602179055509050506168b6673ce7a2657cb86f2760c01b610830565b6168ca679fb731ecc6720d0d60c01b610830565b6168d58888856157bd565b6169ca565b6168ee67e4c7bff4424efa4760c01b610830565b616902674060e66203aac1a660c01b610830565b818461690e9190618359565b9350616924678c7ccb6bd4636cc560c01b610830565b81816169309190618cec565b606660008a73ffffffffffffffffffffffffffffffffffffffff1673ffffffffffffffffffffffffffffffffffffffff16815260200190815260200160002060008973ffffffffffffffffffffffffffffffffffffffff1673ffffffffffffffffffffffffffffffffffffffff16815260200190815260200160002084600581106169be576169bd6182c3565b5b60020201600001819055505b50506169e6565b6169e5679a4bf187857fd21460c01b610830565b5b6169fa67761b864b2a4ee37360c01b610830565b616a0e67087d7e833bb3975f60c01b610830565b838203616a5a57616a29673d7f9753c783c6d360c01b610830565b616a3d67920702fb311d63b060c01b610830565b60019250616a5567e0bf4029c840621a60c01b610830565b616a7f565b616a6e673834164b9f99fa6e60c01b610830565b80616a789061838d565b9050616537565b50509392505050565b616a9c67fe11ba1c4f744c7560c01b613be9565b600060019054906101000a900460ff16616aeb576040517f08c379a0000000000000000000000000000000000000000000000000000000008152600401616ae290618dd6565b60405180910390fd5b616aff67ad973d553aa4ca2360c01b613be9565b616b136760eb9099e21275c260c01b613be9565b616b2767a2a76d602a49fddd60c01b613be9565b616b3b673f5b6b0a3615ac0560c01b613be9565b616b448161726d565b50565b616b5b67b5350359536201f860c01b610830565b600060019054906101000a900460ff16616baa576040517f08c379a0000000000000000000000000000000000000000000000000000000008152600401616ba190618dd6565b60405180910390fd5b616bbe67fdcf02e5f4a5f05d60c01b610830565b616bd2670913d522bc3618a860c01b610830565b616be66793c580ec5f490cf060c01b610830565b616bfa67d786811f6e6d263960c01b610830565b600073ffffffffffffffffffffffffffffffffffffffff168473ffffffffffffffffffffffffffffffffffffffff1603616c8857616c4267849be6d71241f4d060c01b610830565b616c56670ea127543b2c7fd060c01b610830565b6040517f9a9ef13b00000000000000000000000000000000000000000000000000000000815260040160405180910390fd5b616c9c678bbd83d59fe4137a60c01b610830565b616cb067d5c9bce41fe39ede60c01b610830565b616cc467ac3b41bab795347f60c01b610830565b600073ffffffffffffffffffffffffffffffffffffffff168373ffffffffffffffffffffffffffffffffffffffff1603616d5257616d0c67ecfb9a8509c0235360c01b610830565b616d206723cd44df2483d47860c01b610830565b6040517fc2d6fa7600000000000000000000000000000000000000000000000000000000815260040160405180910390fd5b616d6667393166fb8df8f7a060c01b610830565b616d7a671dbde96dd0c4be8b60c01b610830565b83606760006101000a81548173ffffffffffffffffffffffffffffffffffffffff021916908373ffffffffffffffffffffffffffffffffffffffff160217905550616dcf676fbee5945b5fa4ee60c01b610830565b82606a60006101000a81548173ffffffffffffffffffffffffffffffffffffffff021916908373ffffffffffffffffffffffffffffffffffffffff160217905550616e2467269e0584713bee0d60c01b610830565b616e386705422cbea7db566b60c01b610830565b616e4182615226565b616e5567db074a938aecad5560c01b610830565b616e6967bbdb66c244ce2fba60c01b610830565b616e7281613c7f565b50505050565b6000616e8e67b66af705f3f972b260c01b610830565b616ea26731c9e8dba57c6c8560c01b610830565b616eb667b160e90e209f85cc60c01b610830565b6000606560008573ffffffffffffffffffffffffffffffffffffffff1673ffffffffffffffffffffffffffffffffffffffff16815260200190815260200160002060008473ffffffffffffffffffffffffffffffffffffffff1673ffffffffffffffffffffffffffffffffffffffff168152602001908152602001600020549050616f4b676be7704391084a8e60c01b610830565b616f5f6702668c503fb036c460c01b610830565b60005b61010081101561700d57616f8067934db7e1ed2372dc60c01b610830565b616f946786afa825903dd63860c01b610830565b6000816001901b831603616fe857616fb6674d04b8100eebe7c060c01b610830565b616fca67ee5010bc60eb224260c01b610830565b616fde6734d8623f784ac85660c01b610830565b8092505050617061565b616ffc67295ce2e2cc12773360c01b610830565b806170069061838d565b9050616f62565b5061702267e051805ec028b6f660c01b610830565b83836040517fca340fa6000000000000000000000000000000000000000000000000000000008152600401617058929190618531565b60405180910390fd5b92915050565b61707b674e8de08071b5936660c01b610830565b61708f674ec6f982dfc641d760c01b610830565b806001901b606560008573ffffffffffffffffffffffffffffffffffffffff1673ffffffffffffffffffffffffffffffffffffffff16815260200190815260200160002060008473ffffffffffffffffffffffffffffffffffffffff1673ffffffffffffffffffffffffffffffffffffffff16815260200190815260200160002060008282541792505081905550505050565b61712b81616320565b8073ffffffffffffffffffffffffffffffffffffffff167fbc7cd75a20ee27fd9adebab32041f755214dbc6bffa90cc0225b39da2e5c2d3b60405160405180910390a250565b606061717c836158ff565b6171bb576040517f08c379a00000000000000000000000000000000000000000000000000000000081526004016171b290618fb5565b60405180910390fd5b6000808473ffffffffffffffffffffffffffffffffffffffff16846040516171e39190619011565b600060405180830381855af49150503d806000811461721e576040519150601f19603f3d011682016040523d82523d6000602084013e617223565b606091505b509150915061724b82826040518060600160405280602781526020016191276027913961732c565b9250505092915050565b6060617264848460008561734e565b90509392505050565b61728167201c359c2e62262c60c01b613be9565b600060019054906101000a900460ff166172d0576040517f08c379a00000000000000000000000000000000000000000000000000000000081526004016172c790618dd6565b60405180910390fd5b6172e4672c7341716f82493160c01b613be9565b6172f867d612b7d1fe01d94560c01b613be9565b61730c67476aa648732a719b60c01b613be9565b617320678d83d087cb66baae60c01b613be9565b6173298161741b565b50565b6060831561733c57829050617347565b6173468383617562565b5b9392505050565b606082471015617393576040517f08c379a000000000000000000000000000000000000000000000000000000000815260040161738a9061909a565b60405180910390fd5b6000808673ffffffffffffffffffffffffffffffffffffffff1685876040516173bc9190619011565b60006040518083038185875af1925050503d80600081146173f9576040519150601f19603f3d011682016040523d82523d6000602084013e6173fe565b606091505b509150915061740f878383876175b2565b92505050949350505050565b61742f6770451585f5d4a4a160c01b613be9565b61744367ea0a5698ee7195fa60c01b613be9565b61745767fdeb0952ad05b0c560c01b613be9565b617460816158ff565b6174c957617478672763c53ff452356f60c01b613be9565b61748c67f3d50946e10eaaba60c01b613be9565b806040517fb5cf5b8f0000000000000000000000000000000000000000000000000000000081526004016174c09190618646565b60405180910390fd5b6174dd6736083e59d01190ce60c01b613be9565b6174f167c104fa7457aa6f5860c01b613be9565b8061751e7f3ff07d6b238084e39fc5d050e304626ccf5b5ccb8f457170664beef2c5e4919a60001b61630c565b60000160006101000a81548173ffffffffffffffffffffffffffffffffffffffff021916908373ffffffffffffffffffffffffffffffffffffffff16021790555050565b6000825111156175755781518083602001fd5b806040517f08c379a00000000000000000000000000000000000000000000000000000000081526004016175a99190617756565b60405180910390fd5b6060831561761457600083510361760c576175cc856158ff565b61760b576040517f08c379a000000000000000000000000000000000000000000000000000000000815260040161760290619106565b60405180910390fd5b5b82905061761f565b61761e8383617562565b5b949350505050565b6000604051905090565b600080fd5b600080fd5b600073ffffffffffffffffffffffffffffffffffffffff82169050919050565b60006176668261763b565b9050919050565b6176768161765b565b811461768157600080fd5b50565b6000815190506176938161766d565b92915050565b6000602082840312156176af576176ae617631565b5b60006176bd84828501617684565b91505092915050565b600081519050919050565b600082825260208201905092915050565b60005b838110156177005780820151818401526020810190506176e5565b60008484015250505050565b6000601f19601f8301169050919050565b6000617728826176c6565b61773281856176d1565b93506177428185602086016176e2565b61774b8161770c565b840191505092915050565b60006020820190508181036000830152617770818461771d565b905092915050565b6000813590506177878161766d565b92915050565b600080604083850312156177a4576177a3617631565b5b60006177b285828601617778565b92505060206177c385828601617778565b9150509250929050565b6000819050919050565b6177e0816177cd565b82525050565b60006020820190506177fb60008301846177d7565b92915050565b6000819050919050565b600061782661782161781c8461763b565b617801565b61763b565b9050919050565b60006178388261780b565b9050919050565b600061784a8261782d565b9050919050565b61785a8161783f565b82525050565b60006020820190506178756000830184617851565b92915050565b60006178868261782d565b9050919050565b6178968161787b565b82525050565b60006020820190506178b1600083018461788d565b92915050565b6178c0816177cd565b81146178cb57600080fd5b50565b6000813590506178dd816178b7565b92915050565b6000806000606084860312156178fc576178fb617631565b5b600061790a86828701617778565b935050602061791b86828701617778565b925050604061792c868287016178ce565b9150509250925092565b600063ffffffff82169050919050565b61794f81617936565b82525050565b600060408201905061796a60008301856177d7565b6179776020830184617946565b9392505050565b61798781617936565b811461799257600080fd5b50565b6000813590506179a48161797e565b92915050565b6000602082840312156179c0576179bf617631565b5b60006179ce84828501617995565b91505092915050565b60006179e28261782d565b9050919050565b6179f2816179d7565b82525050565b6000602082019050617a0d60008301846179e9565b92915050565b600060208284031215617a2957617a28617631565b5b6000617a3784828501617778565b91505092915050565b600080fd5b600080fd5b7f4e487b7100000000000000000000000000000000000000000000000000000000600052604160045260246000fd5b617a828261770c565b810181811067ffffffffffffffff82111715617aa157617aa0617a4a565b5b80604052505050565b6000617ab4617627565b9050617ac08282617a79565b919050565b600067ffffffffffffffff821115617ae057617adf617a4a565b5b617ae98261770c565b9050602081019050919050565b82818337600083830152505050565b6000617b18617b1384617ac5565b617aaa565b905082815260208101848484011115617b3457617b33617a45565b5b617b3f848285617af6565b509392505050565b600082601f830112617b5c57617b5b617a40565b5b8135617b6c848260208601617b05565b91505092915050565b600080600080600060a08688031215617b9157617b90617631565b5b6000617b9f88828901617778565b955050602086013567ffffffffffffffff811115617bc057617bbf617636565b5b617bcc88828901617b47565b9450506040617bdd88828901617778565b9350506060617bee88828901617995565b925050608086013567ffffffffffffffff811115617c0f57617c0e617636565b5b617c1b88828901617b47565b9150509295509295909350565b60008060408385031215617c3f57617c3e617631565b5b6000617c4d85828601617778565b9250506020617c5e858286016178ce565b9150509250929050565b600067ffffffffffffffff821115617c8357617c82617a4a565b5b617c8c8261770c565b9050602081019050919050565b6000617cac617ca784617c68565b617aaa565b905082815260208101848484011115617cc857617cc7617a45565b5b617cd3848285617af6565b509392505050565b600082601f830112617cf057617cef617a40565b5b8135617d00848260208601617c99565b91505092915050565b60008060408385031215617d2057617d1f617631565b5b6000617d2e85828601617778565b925050602083013567ffffffffffffffff811115617d4f57617d4e617636565b5b617d5b85828601617cdb565b9150509250929050565b6000819050919050565b617d7881617d65565b82525050565b6000602082019050617d936000830184617d6f565b92915050565b6000617da48261782d565b9050919050565b617db481617d99565b82525050565b6000602082019050617dcf6000830184617dab565b92915050565b6000602082019050617dea6000830184617946565b92915050565b6000617dfb8261782d565b9050919050565b617e0b81617df0565b82525050565b6000602082019050617e266000830184617e02565b92915050565b6000617e378261765b565b9050919050565b617e4781617e2c565b8114617e5257600080fd5b50565b600081359050617e6481617e3e565b92915050565b600060208284031215617e8057617e7f617631565b5b6000617e8e84828501617e55565b91505092915050565b6000617ea28261765b565b9050919050565b617eb281617e97565b8114617ebd57600080fd5b50565b600081359050617ecf81617ea9565b92915050565b600060208284031215617eeb57617eea617631565b5b6000617ef984828501617ec0565b91505092915050565b600080fd5b600080fd5b60008083601f840112617f2257617f21617a40565b5b8235905067ffffffffffffffff811115617f3f57617f3e617f02565b5b602083019150836020820283011115617f5b57617f5a617f07565b5b9250929050565b60008083601f840112617f7857617f77617a40565b5b8235905067ffffffffffffffff811115617f9557617f94617f02565b5b602083019150836020820283011115617fb157617fb0617f07565b5b9250929050565b600067ffffffffffffffff82169050919050565b617fd581617fb8565b8114617fe057600080fd5b50565b600081359050617ff281617fcc565b92915050565b60008060008060008060006080888a03121561801757618016617631565b5b600088013567ffffffffffffffff81111561803557618034617636565b5b6180418a828b01617f0c565b9750975050602088013567ffffffffffffffff81111561806457618063617636565b5b6180708a828b01617f62565b9550955050604088013567ffffffffffffffff81111561809357618092617636565b5b61809f8a828b01617f0c565b935093505060606180b28a828b01617fe3565b91505092959891949750929550565b60006180cc8261765b565b9050919050565b6180dc816180c1565b81146180e757600080fd5b50565b6000813590506180f9816180d3565b92915050565b60006020828403121561811557618114617631565b5b6000618123848285016180ea565b91505092915050565b6000806040838503121561814357618142617631565b5b600061815185828601617778565b925050602061816285828601617995565b9150509250929050565b60006181778261765b565b9050919050565b6181878161816c565b811461819257600080fd5b50565b6000813590506181a48161817e565b92915050565b60006181b58261765b565b9050919050565b6181c5816181aa565b81146181d057600080fd5b50565b6000813590506181e2816181bc565b92915050565b600080600080600060a0868803121561820457618203617631565b5b600061821288828901618195565b9550506020618223888289016181d3565b945050604061823488828901617e55565b935050606061824588828901617995565b925050608061825688828901617995565b9150509295509295909350565b7f4e487b7100000000000000000000000000000000000000000000000000000000600052602260045260246000fd5b600060028204905060018216806182aa57607f821691505b6020821081036182bd576182bc618263565b5b50919050565b7f4e487b7100000000000000000000000000000000000000000000000000000000600052603260045260246000fd5b7f4e487b7100000000000000000000000000000000000000000000000000000000600052601160045260246000fd5b600061832c82617936565b915061833783617936565b9250828201905063ffffffff811115618353576183526182f2565b5b92915050565b6000618364826177cd565b915061836f836177cd565b9250828201905080821115618387576183866182f2565b5b92915050565b6000618398826177cd565b91507fffffffffffffffffffffffffffffffffffffffffffffffffffffffffffffffff82036183ca576183c96182f2565b5b600182019050919050565b6183de8161765b565b82525050565b60006040820190506183f96000830185617d6f565b61840660208301846183d5565b9392505050565b7f46756e6374696f6e206d7573742062652063616c6c6564207468726f7567682060008201527f64656c656761746563616c6c0000000000000000000000000000000000000000602082015250565b6000618469602c836176d1565b91506184748261840d565b604082019050919050565b600060208201905081810360008301526184988161845c565b9050919050565b7f46756e6374696f6e206d7573742062652063616c6c6564207468726f7567682060008201527f6163746976652070726f78790000000000000000000000000000000000000000602082015250565b60006184fb602c836176d1565b91506185068261849f565b604082019050919050565b6000602082019050818103600083015261852a816184ee565b9050919050565b600060408201905061854660008301856183d5565b61855360208301846183d5565b9392505050565b60006080820190508181036000830152618574818761771d565b90508181036020830152618588818661771d565b9050818103604083015261859c818561771d565b90506185ab60608301846177d7565b95945050505050565b7f555550535570677261646561626c653a206d757374206e6f742062652063616c60008201527f6c6564207468726f7567682064656c656761746563616c6c0000000000000000602082015250565b60006186106038836176d1565b915061861b826185b4565b604082019050919050565b6000602082019050818103600083015261863f81618603565b9050919050565b600060208201905061865b60008301846183d5565b92915050565b60008115159050919050565b61867681618661565b811461868157600080fd5b50565b6000815190506186938161866d565b92915050565b6000602082840312156186af576186ae617631565b5b60006186bd84828501618684565b91505092915050565b6000819050919050565b6186d9816186c6565b82525050565b60006020820190506186f460008301846186d0565b92915050565b600060608201905061870f60008301866183d5565b61871c60208301856183d5565b6187296040830184617946565b949350505050565b600060808201905061874660008301876183d5565b61875360208301866183d5565b6187606040830185617946565b61876d60608301846177d7565b95945050505050565b600081905092915050565b50565b6000618791600083618776565b915061879c82618781565b600082019050919050565b60006187b282618784565b9150819050919050565b60006040820190506187d160008301856183d5565b6187de60208301846177d7565b9392505050565b7f496e697469616c697a61626c653a20636f6e747261637420697320616c72656160008201527f647920696e697469616c697a6564000000000000000000000000000000000000602082015250565b6000618841602e836176d1565b915061884c826187e5565b604082019050919050565b6000602082019050818103600083015261887081618834565b9050919050565b6000819050919050565b600060ff82169050919050565b60006188a96188a461889f84618877565b617801565b618881565b9050919050565b6188b98161888e565b82525050565b60006020820190506188d460008301846188b0565b92915050565b6188e381617d65565b81146188ee57600080fd5b50565b600081519050618900816188da565b92915050565b60006020828403121561891c5761891b617631565b5b600061892a848285016188f1565b91505092915050565b7f45524331393637557067726164653a206e657720696d706c656d656e7461746960008201527f6f6e206973206e6f742055555053000000000000000000000000000000000000602082015250565b600061898f602e836176d1565b915061899a82618933565b604082019050919050565b600060208201905081810360008301526189be81618982565b9050919050565b7f45524331393637557067726164653a20756e737570706f727465642070726f7860008201527f6961626c65555549440000000000000000000000000000000000000000000000602082015250565b6000618a216029836176d1565b9150618a2c826189c5565b604082019050919050565b60006020820190508181036000830152618a5081618a14565b9050919050565b6000618a62826177cd565b9150618a6d836177cd565b9250828202618a7b816177cd565b91508282048414831517618a9257618a916182f2565b5b5092915050565b6000618aa4826177cd565b915060008203618ab757618ab66182f2565b5b600182039050919050565b7f537472696e67733a20686578206c656e67746820696e73756666696369656e74600082015250565b6000618af86020836176d1565b9150618b0382618ac2565b602082019050919050565b60006020820190508181036000830152618b2781618aeb565b9050919050565b600081519050618b3d816178b7565b92915050565b600060208284031215618b5957618b58617631565b5b6000618b6784828501618b2e565b91505092915050565b7f5361666545524332303a20617070726f76652066726f6d206e6f6e2d7a65726f60008201527f20746f206e6f6e2d7a65726f20616c6c6f77616e636500000000000000000000602082015250565b6000618bcc6036836176d1565b9150618bd782618b70565b604082019050919050565b60006020820190508181036000830152618bfb81618bbf565b9050919050565b6000618c0d8261765b565b9050919050565b618c1d81618c02565b8114618c2857600080fd5b50565b600081519050618c3a81618c14565b92915050565b600060208284031215618c5657618c55617631565b5b6000618c6484828501618c2b565b91505092915050565b6000606082019050618c8260008301866183d5565b618c8f60208301856183d5565b618c9c60408301846177d7565b949350505050565b6000618caf826186c6565b91507f80000000000000000000000000000000000000000000000000000000000000008203618ce157618ce06182f2565b5b816000039050919050565b6000618cf7826177cd565b9150618d02836177cd565b9250828203905081811115618d1a57618d196182f2565b5b92915050565b6000618d2b826186c6565b9150618d36836186c6565b925082820190508281121560008312168382126000841215161715618d5e57618d5d6182f2565b5b92915050565b7f496e697469616c697a61626c653a20636f6e7472616374206973206e6f74206960008201527f6e697469616c697a696e67000000000000000000000000000000000000000000602082015250565b6000618dc0602b836176d1565b9150618dcb82618d64565b604082019050919050565b60006020820190508181036000830152618def81618db3565b9050919050565b6000604082019050618e0b60008301856177d7565b618e1860208301846177d7565b9392505050565b7f455243313936373a206e657720696d706c656d656e746174696f6e206973206e60008201527f6f74206120636f6e747261637400000000000000000000000000000000000000602082015250565b6000618e7b602d836176d1565b9150618e8682618e1f565b604082019050919050565b60006020820190508181036000830152618eaa81618e6e565b9050919050565b7f5361666545524332303a204552433230206f7065726174696f6e20646964206e60008201527f6f74207375636365656400000000000000000000000000000000000000000000602082015250565b6000618f0d602a836176d1565b9150618f1882618eb1565b604082019050919050565b60006020820190508181036000830152618f3c81618f00565b9050919050565b7f416464726573733a2064656c65676174652063616c6c20746f206e6f6e2d636f60008201527f6e74726163740000000000000000000000000000000000000000000000000000602082015250565b6000618f9f6026836176d1565b9150618faa82618f43565b604082019050919050565b60006020820190508181036000830152618fce81618f92565b9050919050565b600081519050919050565b6000618feb82618fd5565b618ff58185618776565b93506190058185602086016176e2565b80840191505092915050565b600061901d8284618fe0565b915081905092915050565b7f416464726573733a20696e73756666696369656e742062616c616e636520666f60008201527f722063616c6c0000000000000000000000000000000000000000000000000000602082015250565b60006190846026836176d1565b915061908f82619028565b604082019050919050565b600060208201905081810360008301526190b381619077565b9050919050565b7f416464726573733a2063616c6c20746f206e6f6e2d636f6e7472616374000000600082015250565b60006190f0601d836176d1565b91506190fb826190ba565b602082019050919050565b6000602082019050818103600083015261911f816190e3565b905091905056fe416464726573733a206c6f772d6c6576656c2064656c65676174652063616c6c206661696c6564a264697066735822122042f061d8e1c0467c5f12391df86182c5519811dfd572b4c1e39733c6c1aadae664736f6c63430008110033",
  "linkReferences": {},
  "deployedLinkReferences": {}
}